:100F79006404000000000000000000000000000000
:100F89000000000000000000000000000000000058
:100F99000000000000000000000000000000000048
:100FA9000000000000000000000000000000000038
:100FB9000000000000000000000000000000000028
:1013790000000000000000006404040400000000F4
:101389000000000000000000000000000000000054
:101399000000000000000000000000000000000044
:1013A9000000000000000000000000000000000034
:1013B9000000000000000000000000000000000024
:05178900011D01C10972
:103E8B00E4900404F0A3F0A3F0A3F0751D019000DF
:093E9B0000F0A3F0A3F0A3F02253
:023AAC008F3752
:103AAE00753801753904753A04900406E0FEA3E0FA
:103ABE00FFC3900405E09F900404E09EC39404406D
:103ACE00057EFF7FFF22C2ACAB38E53A2404F9E451
:103ADE003539FAC002C001AA39A93A122050FFE5C1
:103AEE00F05403FED001D002E92FF9EA3EFAE53791
:103AFE00121FDEAB38AA39A93AE475F0011220FF85
:0E3B0E00D2ACE51D6005E4F51DD299E4FEFF82
:013B1C002286
:103D44008B348A358936AB34AA35A936121F2E60D6
:103D5400130536E5367002053514F9121F2EFF12CD
:0E3D64003AAC80E27F0D123AAC7F0A023AAC14
:103C81007B017A007900900002E0FEA3E0FFC3907F
:103C91000001E09FFF900000E09E4F70057EFF7FD6
:103CA100FF22C2AC900002E475F0011220B354036C
:103CB100FEE92404F9E43AFAE925F0F9EA3EFA12B8
:073CC1001F2EFF7E00D2ACB4
:013CC80022D9
:103D9C00E589540F4420F589758DEE438E40858D51
:103DAC008B759850D28ED2ACD299759A50759CFD69
:073DBC00438E1475AF0122D4
:030023000236E3BF
:1036E300C0E0C0F0C083C082C0D075D000C000C0AD
:0D36F30001C002C003C004C005C006C0072E
:10370000309954C2997B017A0479048B228A2389E7
:103710002490000212207BFFAEF01220506F700345
:10372000E5F06E602FAB22EE5403FEE5242404F98D
:10373000E43523FAE92FF9EA3EFA121F2EF599AB88
:1037400022AA23A924900002E475F0011221377502
:103750001D008003751D0130984CC2987B017A00D2
:1037600079008B228A23892490000212207BFFAEED
:10377000F0122050FDACF0C39FEC9E54FC7027ABC0
:1037800022E5242404F9E43523FAEC5403FEE92D60
:10379000F9EA3EFAE599121FDEAB22AA23A924E436
:0637A00075F0011220FF8C
:1037A600D007D006D005D004D003D002D001D00077
:0B37B600D0D0D082D083D0F0D0E03221
:03004300023E7109
:103E7100C0E0E59A30E006539AFE859B9BE59A30B7
:0A3E8100E105539AFDC209D0E032BA
:03178E00011E0336
:103DEA00AF1E7401A807088002C333D8FCF59DE40E
:103DFA00F5BDE51E4488F5BC7F027E0012002653FD
:033E0A00BCEF22E8
:103E3000E51E4488F5BC000000000000AFBDEF7532
:103E4000F004A4FFAEF0E5BE5403FDEF4DFF53BCFC
:013E5000EF82
:013E5100224E
:10002600EF1FAA0670011E4A60107C137D88ED1D25
:0A003600AA0470011C4A60E880F47F
:01004000229D
:103BD5002530342E326600736574206F6B2C20708F
:103BE5006C65617365206368616E676520627561E8
:103BF500726420726174650D0A00BDA8C1A2C1ACD2
:103C0500BDD30D0A007273742000646973632000CC
:103C150070B8DCEEF4F7FAFD48656C6C6F20776FD1
:063C2500726C640D0A0040
:1017910061C8128E485454502F312E3020323030CF
:1017A100204F4B0A436F6E74656E742D54797065CA
:1017B1003A20746578742F68746D6C0A0A3C6874F9
:1017C1006D6C3E3C6D65746120687474702D65713B
:1017D1007569763D7265667265736820636F6E74B4
:1017E100656E743D333E3C626F64793E3C63656E69
:1017F1007465723E3C68313EBBF9D3DA574542B558
:10180100C4BCE0BFD8CFB5CDB3C9E8BCC6B2E2CA4B
:10181100D4D2B3C3E63C2F68313E3C68333EBFAA05
:10182100B9D8C1BFBFD8D6C63A3C2F68333E3C6257
:10183100723E3C703EB5E3BBF7B0B4C5A5D2D4BF90
:10184100AAC6F4BBF2B9D8B1D54C45442031B6D4BF
:10185100D3A64C4544C3F02030B6D4D3A64C45445E
:10186100C1C13C2F703E3C2F63656E7465723E3C76
:10187100666F726D20616374696F6E3D7377632E5D
:1018810068746D6C3E3C7461626C6520616C696763
:101891006E3D63656E7465723E3C747220616C6965
:1018A100676E3D63656E7465723E3C74643E503193
:1018B1005F373A266E6273703C696E70757420747E
:1018C1007970653D7375626D6974206E616D653DFA
:1018D1007377372076616C75653D313E3C2F7464BA
:1018E1003E3C74643E50315F363A266E6273703C02
:1018F100696E70757420747970653D7375626D6978
:1019010074206E616D653D7377362076616C756507
:101911003D313E3C2F74643E3C2F74723E3C2F742B
:1019210061626C653E3C2F666F726D3E3C63656E15
:101931007465723E3C68333EC6BDCCA8B5E7D1B9EB
:101941003A2030352E3030563C2F68333E3C2F62E2
:0C1951006F64793E3C2F68746D6C3E00A2
:10000E007F8F7E1F123D727F907E1F123D727F503A
:05001E007E00023D72AE
:1026DC00E5162404F582E43515F583E0FEA3E08EBF
:1026EC00F01222142700005028C41F8F29651F9058
:1026FC0000002A127863E630E608E4901456F0A342
:10270C00F0227863E630E31D901456E475F0011264
:10271C00203AFEC3E5F0940AEE94005003022AA37B
:10272C0078637620227863E620E10302283AAB0B2B
:10273C00AA0CA90D121F2EB4471C900001121F47A2
:10274C00B44513900002121F47B4540A90000312B0
:10275C001F476420600478637620900004121F47A2
:10276C00642F7066900005121F476473705C9000B4
:10277C0006121F4764777052900007121F4764635C
:10278C007048900010121F47B4371B900012121F94
:10279C0047B4310AC2979013D47430F08008D297A2
:1027AC009013D47431F0900010121F47B4361B9064
:1027BC000012121F47B4310AC29690140B7430F0F9
:0A27CC008008D29690140B7431F0CF
:1027D600123E30AC06AD07E4121B1BE4FBFA79A0EF
:1027E6007840121970E4FBFA79807844121A798FCE
:1027F6003D8E3C8D3B8C3A7537FF75383B7539D528
:102806007B017A1479D71222C9783C7C147D017B2E
:0C281600017A1479D77E007F05121F089C
:102822009014587401F0A37412F0A3748EF09014F3
:10283200567401F0A374C7F07863E630E05BE516E6
:102842002410F582E43515F583E0FEA3E0FF901431
:1028520056E0FAA3E0FBC39FEA9E4028E516241047
:10286200F582E43515F583E0FCA3E0FDC3EB9DFEA4
:10287200EA9C901456F0A3CEF0901459EC8DF0120D
:1028820020248007E4901456F0A3F0901456E070D0
:1028920002A3E07004786376107863E630E3030203
:1028A2002AA3901458E0FBA3E0FAA3E08B088A095C
:1028B200F50A901456E0FEA3E0FF786BA60608A680
:1028C20007227863E620E103022AA3AB0BAA0CA934
:1028D2000D121F2E64736003022AA3900001121FBF
:1028E2004764656003022AA3900002121F476474C2
:1028F2006003022AA3900003121F4764636003026D
:102902002AA3900004121F47646F6003022AA39057
:0C2912000005121F47646D6003022AA339
:10291E007BFF7A3B79DC123D447FF47E0112002668
:10292E00AB0BAA0CA90D900006121F4724D0F5314F
:10293E00E434FFF530C394005003022AA3D3E531EB
:10294E009407E53094004003022AA3E531903C152C
:06295E0093F58D858D8BC1
:10296400227863E630E135786EE61846602EE4F5A9
:1029740030F531C3E531786E96E5301896501DABCD
:102984000BAA0CA90D853182853083121F47FF12D3
:102994003AAC0531E53170DB053080D77863E62049
:0529A400E303022AA379
:1029A900900002E0FEA3E0FFC3900001E09FF53331
:1029B900900000E09EF532D3E5339400E5329400AF
:1029C9005003022AA3E4F530F531C3E5319533E527
:1029D900309532501B123C81748E2531F582740E6C
:1029E9003530F583EFF00531E53170DE053080DAF9
:1029F900786BA63208A63375080175090E750A8E1B
:072A090018E6FE08E6FF18C5
:102A10008068E5162406F582E43515F583E0FEA30B
:102A2000E064B87003EE642270797863E630E632D1
:102A30007BFF7A3B79FF123D447BFF7A3C791D1284
:102A40003EA4786BA60608A6077508FF75093C75B5
:102A50000A1D18E6FE08E6FF18A60608A607751761
:012A60000174
:102A6100227863E630E118850B08850C09850D0A8B
:102A7100786DE6FE08E6FF786BA60608A6072278C1
:102A810063E630E50BE4F5177BFF7A3C790A800FAA
:102A91007863E630E40CE4F5177BFF7A3C790F129A
:022AA1003D44B2
:012AA3002210
:103EB9000D0A00696E6974206F6B0D0A0073796EC3
:033EC90063200073
:06195D0001170001180152
:1034AA00123D9C123DEA123E8BE4F5197BFF7A3EEF
:1034BA0079B9123D440519E519C3941440EE123C3A
:1034CA00C91235D8123D0D12000ED2AF7BFF7A3EDB
:1034DA0079BC123D44023575E517703DAF180518E1
:0934EA00EF75F00F84E5F070307D
:1034F300F529F52AF52B7525C07526A875270175BD
:103503002802FB7A0079257DB87C22122C9A8B291C
:103513008A2A892B7517017BFF7A3E79C6123D44AF
:10352300123ECC786DA60608A607E618467049F544
:1035330019E51975F01CA42408F582E43408AF8258
:10354300F5158F167F02120046D3786EE6940018A5
:10355300E694004006122AA41237C10519E519C3DF
:10356300940640CD051AE51A641460030234E2128E
:103573003B1DE4F51A0234E27F007E0812000A9034
:1035830008BCE0B50621A3E0B5071C123A2E7F0163
:10359300120046D3786EE6940018E69400500302B6
:1035A30034E2122AA480287F067E0812000A9008BB
:1035B300BCE06E7003A3E06F60030234E2122FA835
:1035C300D3786EE6940018E6940050030234E212B6
:0535D30037C10234E2E3
:0C3EDE00C0A80164C0A80101FFFFFF00A4
:103CC900E4786AF6786AE6FFC39406500FEF25E0B8
:103CD9002452F8E4F608F6786A0680E8E4786AF689
:103CE900786AE6FFC394065013EF75F01CA42421EB
:103CF900F582E43408F583E4F00680E4785076042C
:043D09000876002216
:0A2C9A008B2C8A2D892E8C2F8D3093
:102CA400785106E618700106C37850E6947D400515
:102CB4007610087600E4786AF6786AE6FFC394062C
:102CC4005039EF75F01CA42408F9740835F0FA7B28
:102CD400018B31F5328933900019121F47601712A6
:102CE4000003AB31AA32A93390000412207B6F7029
:102CF40003EE65F060AA786A0680BE75310075320D
:102D040000753300E4786AF6786AE6FFC3940650E7
:102D14005FEF75F01CA42408F9740835F0FA7B0100
:102D24008B34F5358936900019121F47FF700985D9
:102D340034318A3289338038EF6407702EE53345A5
:102D440032601FAB34AA35A93690001A121F47FF10
:102D5400E516241AF582E43515F583E0FEEFD39EDB
:102D64004009853431853532853633786A06809852
:102D7400E53345327004FBFAF922AB31AA32A933A8
:102D84009000197402121FF07865E690000C121F6F
:102D9400F07866E690000D121FF07867E690000E5A
:102DA400121FF07868E690000F121FF09000127462
:102DB4000575F0A61221A3900014740575F0A612EF
:102DC40021A3900010E475F0011221A390001BE4EC
:102DD400121FF090001A7401121FF090001874036F
:102DE400121FF0900016E4121FF0900017741012D6
:102DF4001FF0120003AB31AA32A933900004EE8F06
:102E0400F01221A3900006E52F8530F01221A3AB28
:102E14002CAA2DA92E122050FFAB31AA32A933E5DA
:102E2400F08FF0122184AB2CAA2DA92E900002124F
:102E3400207BFFAB31AA32A933900002E5F08FF07A
:032E44001221A3B5
:012E47002268
:103D7200E4786AF6786AE6FDC39406501CED25E005
:103D82002453F9E71947700CE625E02452F8A606F9
:0A3D920008A60722786A0680DB22EB
:0D3B7B007863E64402F6786DE6FE08E6FF8A
:103B8800AD07AC06E5162408FFE43515FAA9077B4E
:103B980001123C2BE5162408F582E43515F583E57A
:103BA80011F0E5162409F582E43515F583E512F0E0
:103BB800E516240AF582E43515F583E513F0E516D4
:0D3BC800240BF582E43515F583E514F02299
:10004600752C0185152D85162E750B01750C0875F9
:100056000DE6EF640260030201A9786806E6700CFB
:100066001806E670071806E670021806E4786DF6BC
:1000760008F6AB2CAA2DA92E900019121F47FF6473
:10008600076004EFB4052190001A7401121FAB90AB
:10009600001A121F4764786003020F72AB2CAA2D58
:1000A600A92E900019020E1EAB2CAA2DA92E900087
:1000B60019121F477003020F7290001012207B4521
:1000C600F0700302018390001A74FF121F7460031C
:1000D600020F7290001B121F47FF64086013900006
:1000E60019121F47FE64026004EEB40115EFB40353
:1000F60011900019E4121FF0786376801226DC0254
:100106000C08AB2CAA2DA92E90001B121F47FFD35B
:10011600940440067E047F0480007403A8070880C8
:1001260002C333D8FC90001A121FF090001B740112
:10013600121FAB900019121F47540F1470030206CA
:10014600FE24FE6023147003020AFA24FE700302E2
:100156000AFA24FE7003020AFA24066003020F72EA
:10016600E49008DFF0020704E4786DF608F6786B91
:10017600F608F6786376041226DC020CCBAB2CAAC2
:100186002DA92E900019121F47540F640360030215
:100196000F72786DF608F6786BF608F678637608CF
:1001A600020BED9008BEE064456003020F72786DA5
:1001B600E6FF9008C0E06F7001E4600BE0FE08E621
:1001C600FDEE18F6ED08F6786EE6FF9008C1E06FD2
:1001D6007001E4600C18E6FE08E0FDEE18F6ED0886
:1001E600F69008C4E0543F6003020F72A3E0600378
:1001F600020F72903EDEE493FE740193FF9008CEE8
:10020600E06E7003A3E06F6003020F72903EE0E4BD
:1002160093FE740193FF9008D0E06E7003A3E06F25
:100226006003020F72123EF3EFF47002EEF4600305
:10023600020F729008C7E0640670030202D09008AD
:10024600C7E064016003020F729008D2E0640860A0
:1002560003020F72E49008D2F0C39008D5E094FF31
:100266009008D4E094F74006A3E0240180069008A5
:10027600D5E02400F09008D4E03408F09008CEE0F1
:10028600FEA3E0FF7861EEF6FE08EFF69008CAE0FE
:10029600FDA3E09008CECDF0A3EDF09008CAEEF0F5
:1002A600A3EFF09008D0E0FEA3E0FF18EEF6FE08FC
:1002B600EFF69008CCE0FDA3E09008D0CDF0A3EDDA
:1002C600F09008CCEEF0A3EFF0221230F1EFF470CC
:1002D60002EEF46003020F72752C01752D08752E5F
:1002E60008C39008B0E52E9582E52D95835069AB3D
:1002F6002CAA2DA92E900019121F47604E900004BB
:1003060012207BFF9008D4E065F07003A3E06F70C5
:100316003A90000612207BFF9008D2E0B5F02CA39D
:10032600E0B50727122050FF9008CAE0B5F01CA3DD
:10033600E0B5071790000212207BFF9008CCE0651D
:10034600F07003A3E06F700302072C741C252EF5D2
:100356002EE4352DF52D80899008DFE0543F6402A8
:1003660070369008D4E0FEA3E0FF7861A60608A6E2
:1003760007E4786AF6786AE6FFC39406501AEF2512
:10038600E02453F97862E667700418E6196770038B
:10039600020499786A0680DD9008DFE030E2030205
:1003A6000F729008DF7414F0786D76000876289046
:1003B60008DE7450F09008D9E0786AF6FF9008DD00
:1003C600E09008D9F09008DDEFF09008D8E0F6FF4D
:1003D6009008DCE09008D8F09008DCEFF09008D7A1
:1003E600E0F6FF9008DBE09008D7F09008DBEFF02E
:1003F6009008D6E0F6FF9008DAE09008D6F090086C
:10040600DAEFF09008DDE004F070169008DCE00406
:10041600F0700E9008DBE004F070069008DAE00455
:10042600F09008D2E0FEA3E0FF7861EEF6FE08EF5A
:10043600F6A3E0FDA3E09008D2CDF0A3EDF0A3EE85
:10044600F0A3EFF09008CEE0FEA3E0FF18EEF6FE74
:1004560008EFF69008CAE0FDA3E09008CECDF0A321
:10046600EDF09008CAEEF0A3EFF09008D0E0FEA3FE
:10047600E0FF18EEF6FE08EFF69008CCE0FDA3E0EC
:100486009008D0CDF0A3EDF09008CCEEF0A3EFF0FD
:10049600020F10752C00752DFF752EFFE4786AF695
:1004A600786AE6FFC394064003020531EF75F01C37
:1004B600A42421F582E43408F583E07015E675F08E
:1004C6001CA42408F9740835F0752C01F52D892E25
:1004D6008059786AE6FF75F01CA42421F582E4347D
:1004E60008F583E06407703DAB2CAA2DA92EAC025B
:1004F600AD01ED4C601A90001A121F47FEEF75F021
:100506001CA42422F582E43408F583E0D39E40152A
:10051600786AE675F01CA42408F9740835F0752C81
:1005260001F52D892E786A060204A6E52EF47003DD
:10053600E52DF47003020F72AB2CAA2DA92EAE0284
:10054600AF018E158F1690001A7403121FF09000DB
:10055600187403121FF0900016E4121FF090001793
:100566007404121FF090001BE4121FF09008D4E0F0
:10057600FFA3E0900004CF8FF01221A39008D2E0F1
:10058600FFA3E0900006CF8FF01221A39008CAE0E7
:10059600FFA3E0CF8FF01221849008CCE0FFA3E008
:1005A600AB2CAA2DA92E900002CF8FF01221A3907A
:1005B60000197401121FF07865E690000C121FF006
:1005C6007866E690000D121FF07867E690000E122E
:1005D6001FF07868E690000F121FF0900010E47587
:1005E600F0011221A39008D9E090000B121FF090A1
:1005F60008D8E090000A121FF09008D7E090000992
:10060600121FF09008D6E0900008121FF07F017EBE
:1006160000123B889008DEE054F0D3945050030259
:1006260006FEE4786AF69008DEE0C4540F24FBFF69
:10063600E434FFFEEF7802C333CE33CED8F9FF7829
:100646006AE6FDC39FEE6480F87480984003020654
:10065600FE74E62DF582E43408F583E07869F670D9
:10066600030206FE7869E6FFB40104080680B7EFC8
:1006760064027062786AE6FD24E7F582E43408F5E0
:1006860083E06404705074E82DF582E43408F58341
:10069600E0FE74E92DF582E43408F583E0FDEDFF14
:1006A6007861EEF608EFF6D394A6EE940540067E42
:1006B600057FA680077861E6FE08E6FFAB2CAA2D2B
:1006C600A92E900012EE8FF01221A3900014EE8F47
:1006D600F01221A38022786AE6FF24E7F582E4344B
:1006E60008F583E0601274E72FF582E43408F58399
:1006F600E0786A26F602062C9008DF7410F090085F
:10070600DFE04402F09008E67402F0A37404F0A35C
:1007160004F0A374A6F0786D760008762C9008DEB7
:100726007460F0020E37AB2CAA2DA92EAE02AF01D3
:100736008E158F16E47863F69008DFE030E20E90AF
:100746000019E4121FF078637620020D3D9008DE52
:10075600E0C4540F25E025E0FF786AF6C3786EE61C
:100766009FFF18E69400CF24EC08F6EF34FF18F646
:10077600D308E6940018E69400404AAB2CAA2DA9AB
:100786002E900008121F47FF9008D6E06F60030204
:100796000E24900009121F47FF9008D7E06F6003F0
:1007A600020E2490000A121F47FF9008D8E06F60DF
:1007B60003020E2490000B121F47FF9008D9E06F2A
:1007C6006003020E249008DFE020E4030208D2ABA7
:1007D6002CAA2DA92E90001012207BFDACF04C7097
:1007E600030208D2E9240CF9E43AFA123C2B9008E9
:1007F600DAE0651160030208D2A3E0651260030225
:1008060008D2A3E0651360030208D2A3E065146072
:10081600030208D2AB2CAA2DA92E90000CE51112CA
:100826001FF090000DE512121FF090000EE5131256
:100836001FF090000FE514121FF090001B121F47C7
:020846007074CC
:10084800AB2CAA2DA92E90001A121F47FF90001852
:10085800121F47C39FF52F900016121F471313133B
:10086800541FFFC3E52F9FF52F900016121FABC32F
:10087800E52F648094805006E52FF404F52FAB2C07
:10088800AA2DA92E900017121F471313543FFFC318
:10089800E52F9FF52F900017121FAB900016121F1F
:1008A80047131313541FFF900017121F472F900070
:0408B80018121FF003
:1008BC0078637601AB2CAA2DA92E900018121F4735
:1008CC0090001A121FF0AB2CAA2DA92E9000191211
:1008DC001F47540F14B408004003020F729008F71E
:1008EC0075F003A4C58325F0C5837302090F0209B3
:1008FC0045020A9B020D43020DB7020E03020E24A1
:10090C00020D237863E620E003020F729000197445
:10091C0003121FF078637640900010E4F5F012217A
:10092C00A3D3786EE6940018E694004003123B7B48
:10093C00E4786BF608F6020BED7863E620E0030230
:10094C00039E9008DFE06412600302039E9008DEB1
:10095C00E054F0D394505003020A3DE4786AF690C8
:10096C0008DEE0C4540F24FBFFE434FFFEEF7802F2
:10097C00C333CE33CED8F9FF786AE6FDC39FEE645D
:10098C0080F87480984003020A3D74E62DF582E4E9
:10099C003408F583E07869F67003020A3D7869E65D
:1009AC00FFB40104080680B7EF64027062786AE64F
:1009BC00FD24E7F582E43408F583E0640470507498
:1009CC00E82DF582E43408F583E0FE74E92DF58218
:1009DC00E43408F583E0FDEDFF7861EEF608EFF600
:1009EC00D394A6EE940540067E057FA68007786119
:1009FC00E6FE08E6FFAB2CAA2DA92E900012EE8F76
:100A0C00F01221A3900014EE8FF01221A380227813
:100A1C006AE6FF24E7F582E43408F583E06012749B
:100A2C00E72FF582E43408F583E0786A26F60209AC
:100A3C006BAB2CAA2DA92E9000197403121FF090E9
:100A4C0008D6E0900008121FF09008D7E09000093B
:100A5C00121FF09008D8E090000A121FF09008D9ED
:100A6C00E090000B121FF07F017E00123B88786330
:100A7C007642AB2CAA2DA92E900010E4F5F0122191
:100A8C00A3E4786DF608F6786BF608F6020BED9099
:100A9C0008DFE030E05BAB2CAA2DA92E90001012E1
:100AAC00207B45F06003020F72786EE62401FF187C
:100ABC00E436FE123B8878637610D3786EE69400A9
:100ACC0018E6940040067863E64402F61226DCAB86
:100ADC002CAA2DA92E900010E475F0011221A390E0
:100AEC0000197408121FF090001BE4121FF0020C86
:100AFC003B9008DFE030E5469008E4A3E07864F62C
:100B0C00E6D3786E96E41896400508E67864F67895
:100B1C0064E6FF7E00123B887864E6FFC3786EE6DD
:100B2C009FF618E69400F6850B0E850C0F850D10BC
:100B3C007864E6250DF50DE4350CF50C8027E4788A
:100B4C0064F69008E4E0FEA3E0FDED250DF50DEE56
:100B5C00350CF50C9008E4E0FEEDFFC3786EE69FD3
:100B6C00F618E69EF6D3786EE6940018E6940040EC
:100B7C0012AB2CAA2DA92E900019121F4720E403AA
:100B8C00123B7B9008E0E0FEA3E07C002400FFEC2D
:100B9C003EFE7861F608EFF6AB2CAA2DA92E90003C
:100BAC001412207BFDACF0D3EF9DEE9C50077862C5
:100BBC00E6184670077861A60408A6057861E6FF7A
:100BCC0008E6AB2CAA2DA92E900012CF8FF0122183
:100BDC00A37863E654037003020F72E4786BF60893
:100BEC00F61226DC7863E630E51BE4786BF608F643
:100BFC00AB2CAA2DA92E900019121FF09008DF74AF
:100C0C0014F0020E2A7863E630E42DE4786BF608D3
:100C1C00F6AB2CAA2DA92E90001075F0011221A371
:100C2C009000197404121FF090001BE4121FF09036
:100C3C0008DF7411F0020E2AD3786CE6940018E6E3
:100C4C009400405F7863E630E00FAB2CAA2DA92E00
:100C5C00900010E4F5F01221A3AB2CAA2DA92E9034
:100C6C00001012207B45F0702690001212207BFFA2
:100C7C00AEF0D3786CE69F18E69E4005A60608A653
:100C8C0007786BE6FF08E6900010CF8FF08020AB62
:100C9C002CAA2DA92E90001012207B786BA6F008A0
:100CAC00F6800FAB2CAA2DA92E900010E4F5F012B3
:100CBC0021A3AB2CAA2DA92E90001BE4121FF085AA
:100CCC00080B85090C850A0DD3786CE6940018E6A0
:100CDC009400402AAB2CAA2DA92E90001012207B38
:100CEC00FFAEF0D39400EE94004013EF2428786EFE
:100CFC00F6E43E18F69008DF7418F0020E317863B3
:100D0C00E620E103020F72786D76000876289008D1
:100D1C00DF7410F0020E317863E620E003020F72EC
:100D2C00AB2CAA2DA92E900019E4121FF078637633
:100D3C00101226DC020F72D3786EE6940018E6943B
:100D4C00004003123B839008DFE030E02D7863E62F
:100D5C00AB2CAA2DA92E90001930E0177407121F86
:100D6C00F090001AE4121FF0900010E4F5F012213C
:100D7C00A380637406121FF0805C7863E630E01A7F
:100D8C00AB2CAA2DA92E9000197405121FF09000FF
:100D9C0010E4F5F01221A3020F72D3786EE69400E2
:100DAC0018E694005003020F72806DD3786EE694AF
:100DBC000018E694004003123B839008DFE030E01B
:100DCC0025AB2CAA2DA92E9000197407121FF09098
:100DDC00001AE4121FF07F017E00123B88786376C4
:100DEC00101226DC8032D3786EE6940018E694005C
:100DFC005003020F7280217863E620E003020F7229
:100E0C00AB2CAA2DA92E9000197407121FF090007C
:100E1C001AE4121FF0020F729008DF7410F0786D54
:100E2C0076000876289008DE7450F0AB2CAA2DA919
:100E3C002E900008121F479008DAF0900009121F3C
:100E4C00479008DBF090000A121F479008DCF090E6
:100E5C00000B121F479008DDF090000C121F4790FA
:100E6C0008D6F090000D121F479008D7F090000E96
:100E7C00121F479008D8F090000F121F479008D906
:100E8C00F09008C77406F090000412207BFF9008C5
:100E9C00D2E5F0F0A3EFF090000612207BFF900853
:100EAC00D4E5F0F0A3EFF0903EDEE493FF740193F1
:100EBC009008CACFF0A3EFF0903EE0E493FF7401EA
:100ECC00939008CCCFF0A3EFF0122050FF9008CEF7
:100EDC00E5F0F0A3EFF090000212207BFF9008D019
:100EEC00E5F0F0A3EFF0900019121F4730E40BE48B
:100EFC009008E1F09008E0F0800A9008E07405F0AA
:100F0C00A374DCF0786DE69008C0F008E6A3F0E47A
:100F1C009008E2F0A3F01230F1EFF4FFEEF4900839
:100F2C00E2F0A3EFF09008BE7445F0E4A3F0900853
:100F3C00C5F09008C4F09008C674FFF0785F06E620
:100F4C0018700106785EE69008C2F008E6A3F0E49B
:100F5C009008C8F0A3F0123EF3EFF4FFEEF4900803
:0C0F6C00C8F0A3EFF022E4786DF608F660
:010F78002256
:070003007850E6FE08E6FF5D
:01000A0022D3
:103C2B008C308D31900003121F472531F514900015
:103C3B0002121F47FDE5302DF513900001121F47AF
:103C4B00F512121F2EF511E530FFAD13C3ED9FE4F6
:103C5B00940050080512E51270020511AD14C3ED66
:103C6B009531E49400500E0513E51370080512E529
:063C7B0012700205112287
:063879007B017D147C00C0
:06387F008B348A35893606
:10388500E4F537F538D3ED9401EC9400403BAB34C7
:10389500AA35A936122050FFAEF02538F538EE3599
:1038A50037F537C3E5389FE5379E50080538E538C5
:1038B5007002053774022536F536E43535F535746D
:1038C500FE2DFD74FF3CFC80BCED64014C7039ABF2
:1038D50034AA35A936121F2E7F00FE12000AEF25E5
:1038E50038F538EE3537F537AB34AA35A936121F1A
:1038F5002E7F00FE12000AC3E5389FE5379E50086B
:0C3905000538E53870020537AE37AF38E2
:013911002293
:083EF3007A0879BE1238792229
:1030F1007A0879D21238798E308F31AB0BAA0CA9AC
:103101000D9008C0E0FEA3E07C002400FFEC3ECF60
:1031110024D8FDEF34FFFC12387F8E328F33E53136
:103121002533FFF533E5303532FEF532C3EF953106
:10313100EE953050080533E533700205329008CA28
:10314100E0FEA3E0FF2533FDF533EE3532FCF53229
:10315100D3EF9DEE9C40080533E5337002053290B4
:1031610008CCE0FEA3E0FF2533FDF533EE3532FC5C
:10317100F532D3EF9DEE9C40080533E5337002052F
:10318100329008CEE0FEA3E0FF2533FDF533EE35A6
:1031910032FCF532D3EF9DEE9C40080533E53370E8
:1031A1000205329008D0E0FEA3E0FF2533FDF533A0
:1031B100EE3532FCF532D3EF9DEE9C40080533E548
:1031C10033700205327F067E0012000AEF2533FDBF
:1031D100F533EE3532FCF532C004C0057F067E00C2
:1031E10012000AD005D004C3ED9FEC9E50080533B0
:1031F100E533700205329008C0E0FEA3E07C0024B4
:1032010000FFEC3ECF24ECCF34FFFE12000A8E30DB
:103211008F31E5312533FFF533E5303532FEF532B7
:10322100C3EF9531EE953050080533E53370020553
:0532310032AE32AF33A4
:013236002275
:0919630046145C00BD3B33057124
:103D0D00E49014D1F09014D1E0FFC3940A502790A1
:103D1D000004C083C0827D00EF75F00BA42462F90E
:103D2D00741435F0FA7B01D007D00612224190149D
:073D3D00D1E004F080CF2269
:103B1D009014D2E004F0E49014D1F09014D1E0FFB1
:103B2D00C3940A5048EF75F00BA42462F974143550
:103B3D00F0FA7B0190000212207BFFAEF0122050B4
:103B4D00FDE5F04EFEED4F4E601B90000A121F4733
:103B5D00FF9014D2E0C39FC3947840097E007F0488
:0D3B6D007D001222419014D1E004F080AEE2
:013B7A002228
:062E48008B2C8A2D892E5F
:102E4E00E49014D1F09014D1E0FFC3940A506DEFCA
:102E5E0075F00BA42462F9741435F0FA7B018B32F1
:102E6E00F533893412205045F06049AB32900002A0
:102E7E0012207B45F0603D122050FFAEF0AB2CAA25
:102E8E002DA92E1220506F7003E5F06E7026AB3216
:102E9E00AA33A93490000212207BFFAEF0AB2CAA0D
:102EAE002DA92E90000212207BB50708E5F0B5067D
:102EBE0003022F7D9014D1E004F08089E49014D1A8
:102ECE00F09014D1E0FFC3940A5030EF75F00BA4CC
:102EDE002462F9741435F0FA7B018B32F5338934A0
:102EEE0012205045F0700CAB3290000212207B4540
:102EFE00F060089014D1E004F080C69014D1E06424
:102F0E000A705990145BF09014D0F0A3F09014D185
:102F1E00E0FFC3940A503FEF75F00BA42462F974DE
:102F2E001435F0FA7B018B32F533893490000A1296
:102F3E001F47FF9014D2E0C39FFF90145BE0FEEF9B
:102F4E00D39E400AEFF09014D1E09014D0F090147C
:102F5E00D1E004F080B79014D0E0A3F0A834AC33E5
:102F6E00AD32AB2CAA2DA92E7E007F04121F08E5D0
:102F7E00342404F9E43533A801FCAD32AB2FAA306A
:102F8E00A9317E007F06121F089014D2E0AB32AA40
:092F9E0033A93490000A121FF05F
:012FA7002207
:103A2E00786E74F226F61874FF36F6903EE6E4933E
:103A3E00FE740193FF903EDEE4935EFE7401935F8D
:103A4E00FF903EE6E493FC740193FD9008CAE05C9F
:103A5E00FCA3E05DB50746ECB50642903EE8E49364
:103A6E00FE740193FF903EE0E4935EFE7401935F5B
:103A7E00FF903EE8E493FC740193FD9008CCE05C6B
:103A8E00FCA3E05DB50716ECB50612752F01753077
:0E3A9E00087531B67B017A0879CA122E4822CB
:102FA800C3786EE6942A18E694005005E4F608F60D
:102FB80022E4786DF608F69008C4E0FEA3E0FFEE80
:102FC80060030230F0EF24FE70030230B2046003A5
:102FD8000230F0903EDEE493FE740193FF9008D631
:102FE800E06E7003A3E06F60030230F0903EE09360
:102FF800FE740193FF9008D8E06E7003A3E06F6041
:10300800030230F09008C4F0A37402F078D07C0872
:103018007D017B017A0879C67E007F06121F087839
:10302800C67C087D017B017A14795C7E007F0612DC
:103038001F0878B67C087D017B017A14795C7E00D4
:103048007F06121F0878B07C087D017B017A087919
:10305800D07E007F06121F089008CCE0FFA3E09006
:1030680008D6CFF0A3EFF09008CEE0FFA3E09008D9
:10307800D8CFF0A3EFF0903EDEE493FF7401939075
:1030880008CCCFF0A3EFF0903EE0E493FF740193F7
:103098009008CECFF0A3EFF09008BC7408F0A374AA
:1030A80006F0786D760008762A22903EDEE493FEDC
:1030B800740193FF9008D6E0B5062DA3E0B5072864
:1030C800903EE0E493FE740193FF9008D8E0B506C3
:1030D80017A3E0B50712752F017530087531C67B47
:0930E800017A0879CC122E48226D
:102AA400903EE6E493FE740193FF903EDEE4935E71
:102AB400FE7401935FFF903EE6E493FC740193FD82
:102AC4009008CEE05CFCA3E05DB50738ECB50634B5
:102AD400903EE8E493FE740193FF903EE0E4935E3D
:102AE400FE7401935FFF903EE8E493FC740193FD50
:102AF4009008D0E0FAA3E0FBEA5CFCEB5D6F7002A7
:102B0400EC6E6024903EE2E493FF7401939014D33E
:102B1400CFF0A3EFF0903EE4E493FF74019390149C
:102B2400D5CFF0A3EFF080159008CEE0FFA3E0909E
:102B340014D3CFF0A3EFF0A3EAF0A3EBF0E49014E6
:102B4400D1F09014D1E0FFC3940A5043EF75F00B19
:102B5400A42462F9741435F0FA7B018B2CF52D89C9
:102B64002E122050FF9014D3E0B5F01BA3E0B5075C
:102B740016AB2C90000212207BFF9014D5E065F078
:102B84007003A3E06F60089014D1E004F080B39068
:102B940014D1E0640A6003022C5BFE7F067DFF7B98
:102BA400017A0879B01222417E007F067D007B0104
:102BB4007A0879D012224178B67C087D017B017AAB
:102BC40014795C7E007F06121F0878C67C087D019C
:102BD4007B017A14795C7E007F06121F089014D35F
:102BE400E0FFA3E09008D6CFF0A3EFF09014D5E077
:102BF400FFA3E09008D8CFF0A3EFF0903EDEE4937B
:102C0400FF7401939008CCCFF0A3EFF0903EE0E482
:102C140093FF7401939008CECFF0A3EFF09008C413
:102C2400E4F0A304F09008BEE4F0A304F0A3740855
:102C3400F0A3E4F0A37406F0A37404F09008BC7449
:102C440008F0A37406F0750B01750C08750DE67891
:102C54006D760008762A22AB2CE52E2404F9E4359F
:102C64002DFA78B07C087D017E007F06121F08785B
:102C7400B67C087D017B017A14795C7E007F0612A4
:102C84001F089008BC7408F0A3E4F0786E740E2654
:052C9400F618E436F61D
:012C99002218
:10391200D0B4C8EB4D41433A253032782D253032B0
:10392200782D253032782D253032782D2530327899
:103932002D253032780D0A00B6C1B3F64D41433A17
:10394200253032782D253032782D253032782D25CC
:103952003032782D253032782D253032780D0A001C
:103962006E6963207265736574206661696C0D0A05
:10397200006E6963207265736574206F6B0D0A00B7
:103982006E6963206964206572726F720D0A006E3F
:10399200696320696420636F72726563740D0A0043
:03196C00011F0058
:073EFB00AE071FEE70FA2272
:063E0D00C2967FC87E0092
:103E13007C007D0C122012AA06AB07EB1BAE0270CE
:0D3E2300011A4E60077F97123EFB80EF22D0
:0C3E52007F01123E5E908007E0FCE4FF60
:103E5E00908000E0FE53063BEFC4333354C042065D
:023E6E00EEF074
:013E7000222F
:103378007F01123E5E908001E4F0A374BDF0A37457
:103388003BF0A37433F0A37405F0A37471F0E490D8
:1033980014D7F0A3F0A3F0A374BDF0A3E4F0A374D2
:1033A8003BF0A3E4F0A37433F0A3E4F0A37405F0B6
:1033B800A3E4F0A37471F07537FF753839753912C5
:1033C8009014D7E0F53AA3E0F53BA3E0F53CA3E081
:1033D800F53DA3E0F53EA3E0F53FA3E0F540A3E00B
:1033E800F541A3E0F542A3E0F54375440075457146
:1033F8007B017A1479E31222C97B017A1479E312EA
:103408003D44908001E0FF9014D7E4F0A3EFF090E2
:103418008002E0FF9014D9E4F0A3EFF0908003E07D
:10342800FF9014DBE4F0A3EFF0908004E0FF901429
:10343800DDE4F0A3EFF0908005E0FF9014DFE4F006
:10344800A3EFF0908006E0FF9014E1E4F0A3EFF022
:103458007537FF75383975393A9014D7E0F53AA3BE
:10346800E0F53BA3E0F53CA3E0F53DA3E0F53EA382
:10347800E0F53FA3E0F540A3E0F541A3E0F542A362
:10348800E0F543A3E0F544A3E0F5457B017A147920
:10349800E31222C97B017A1479E3123D44E4FF0266
:0234A8003E5E86
:1035D800C2B57F3C7E00123E13D2B57F327E001208
:1035E8003E13C2B57F647E00123E13908018E0F04F
:1035F800908004E030E7177BFF7A397962123D4406
:10360800C297123E0DD297D296123E0F80F27BFFE0
:103618007A397973123D449080007421F07F647E7A
:1036280000123E1390800AE0B45006A3E064706074
:10363800177BFF7A397982123D44D297123E0DC228
:1036480097D296123E0F80F27BFF7A397991123D1C
:1036580044E4FF123E5E90800AE4F0A3F0A374E015
:10366800F0A374E2F0908001744CF0A37460F0A3AE
:10367800744CF0A37440F090800774FFF090800FB2
:10368800E4F090800E74C8F07F01123E5E908007CF
:10369800744DF0A3E4F0A3F0A3F0A3F0A3F0A3F01B
:1036A800A3F0A3F09080007422F0123378E4FF12A4
:1036B8003E5E90800C74C4F0A374E0F090800074B7
:1036C80022F090800774FFF0C28C5389F04389017F
:0A36D800758C6AE4F58AD28CD2A941
:0136E20022C5
:1037C100752C01752D08752EB0E4FF123E5EB20A0C
:1037D100908009300A057440F080037446F09080AF
:1037E10008E4F0786DE690800BF008E690800AF02E
:1037F1009080007412F0E4FFFE786DE6FC08E6FDAF
:10380100C3EF9DEE9C502BEF64364E7009850B2C57
:10381100850C2D850D2EAB2C052EE52EAA2D7002C3
:10382100052D14F9121F2E908010F00FBF00010E0C
:1038310080C7908000E020E6F990800774FFF09047
:103841008004300A057440F080037446F0C3786E3A
:10385100E6943C18E694005005760008763C786DB5
:10386100E6908006F008E6908005F090800774FFEE
:07387100F0908000743EF0AE
:01387800222D
:103ECC00123237EF4E7007E51FC3940C40F2E4F545
:013EDC001FC6
:013EDD0022C2
:10323700E4FF123E5E90800774FFF0908003E0FD8C
:10324700123E52EC7003FEFF220DEDD3945F400255
:103257007D4CED6C7003023374E4FF123E5E908088
:1032670009EDF0908008E4F090800BF090800A74EC
:1032770012F0908000740AF0E4FF908010E0FE7472
:10328700D72FF582E43414F583EEF00FBF12EB90DD
:1032970014DAE0FF9014D9E0A3F09014D9EFF0E02E
:1032A700F9FEA3E07A002400FFEA3ECF24FCF52DC7
:1032B700EF34FFF52C9014D7E030E014A3E0FFD3F0
:1032C700945F500CEFC3944C4006E9D39406401525
:1032D700123E52EC14FDC3944C50027D5F90800364
:1032E700EDF00233749014E7E0FEA3E07A002400C7
:1032F700FFEA3EFEEF7003EE6408600AEF640670B3
:1033070003EE64087050908009EDF0908008740413
:10331700F0E52C90800BF0E52D90800AF09080006E
:10332700740AF0E4FFFEC3EF952DEE952C5018902C
:103337008010E0FC74B02FF58274083EF583ECF042
:103347000FBF00010E80DF90800BE4F090800AF041
:103357009080007422F09014D8E014FDC3944C5070
:10336700027D5F908003EDF0AE2CAF2D22E4FEFFCF
:013377002233
:03000B00023EEAC8
:093EEA00758C6A758A00051F320F
:10197000EC4D6011E8497017ED33EC3304600DE471
:10198000FCFFFEFD22E933E8330470F8021B8912E4
:101990001B5458046009E4CC2481500628500902E5
:1019A0001B93284003021B90C0E0EB4A7044B980AF
:1019B00006D0E0FB021B7FEF4E701CBD8008EBFFE2
:1019C000EAFEE9FD80EBE98DF0A4FEE5F0021A598C
:1019D000E9CDF9EAFEEBFFEF89F0A4FCE5F0CE8952
:1019E000F0A42EFFE435F0CD89F0A42DFEE435F00F
:1019F0008067EF4E7005BD80D780C3EF8BF0A4AC3D
:101A0000F0EE8BF0A42CFCE435F0F8EF8AF0A42C77
:101A1000E5F038FCE433CB8DF0A42CFCE5F03BF88A
:101A2000EE8AF0A42CFCE5F038F8E433CF89F0A47A
:101A30002CFCE5F038CF3400CE89F0A42FFFE5F080
:101A40003EFEE433C98DF0A42EFEE5F039CD8AF0D8
:101A5000A42FFFE5F03EFEE43DFD33D0E0FB500750
:101A60000BBB000F021B93EC2CFCEF33FFEE33FE9D
:061A7000ED33FD021B6BCB
:101A7600021B93EC5D046005E859047003021B89A0
:101A8600121B54580460F6EC4860F2EC7004FDFE3C
:101A9600FF22C860DB2481C85009C3986002500643
:101AA600021B909850CAF582E9294B4A7005AB8211
:101AB600021B7F75F0007C1A7880C3EF9BEE9AEDCF
:101AC60099400DC3EF9BFFEE9AFEED99FDE842F0BB
:101AD600DC23ACF0D0E0FFD0E0FED0E0FDAB82200E
:101AE600E7101BEB60BAEC2CFCEF33FFEE33FEED98
:101AF60033FD021B6BE803F830E705C0F075F00014
:101B0600EF2FFFEE33FEED33FD40B830E7C280AA7B
:101B160075F020800E75F010800575F0087D007E4A
:101B2600007F003392D530D5031221D0EC3340101C
:101B3600EF33FFEE33FEED33FDEC33FCD5F0ED2253
:0E1B4600E5F0247EA2D513CC92E7CDCEFF228F
:10226D00E54B2437F8E6054B2278343007027837F2
:10227D00E475F0011221DE021F2E2000EB7F2ED21D
:10228D00008018EF540F2490D43440D4FF30040B49
:10229D00EF24BFB41A0050032461FFE54C60021512
:1022AD004C054FE54F7002054E30070D7834E4753F
:1022BD00F0011221DEEF021FDE023DC37403D207CF
:1022CD008003E4C207F54B8B348A358936E4F54C2F
:1022DD00F54EF54FE54C60077F201222A880F5756D
:1022ED004DFFC201C200C202C203C205C206C2082E
:1022FD00122276FF700D3007057F001222B9AF4F05
:10230D00AE4E22B4255FC2D5C204122276FF24D070
:10231D00B40A00501A75F00A784C30D50508B6FF8E
:10232D000106C6A426F620D5047002D20380D92456
:10233D00CFB41A00EF5004C2E5D2040225A6D20193
:10234D0080C6D20080C0D20280BCD2D580BAD20560
:10235D0080B47F201222A82002077401B54C0040E2
:10236D00F112226DFF1222A80222E1D208D20680BC
:10237D009512226DFB12226DFA12226DF94A4B70E5
:10238D0006799D7A267BFF20022EE54C602A7E0081
:10239D008E82758300121F4760060EEE654D70F03C
:1023AD00C2D5EBC0E0EAC0E0E9C0E0EE122606D0EF
:1023BD00E0F9D0E0FAD0E0FB121F2EFF60AAEBC0CF
:1023CD00E0EAC0E0E9C0E01222A8D0E02401F9D093
:1023DD00E03400FAD0E0FBE54D0460DCD54DD9804A
:1023ED0087D20280A21225E960F7E54D7001041233
:1023FD001B9EA94D600DE54D600914F54D122690FB
:10240D00EF60F3EA30E702F404C3995077EAF4255C
:10241D004D0430E701E404F54D800D1225E960C14E
:10242D00EA054D254D121B9EEA784AF630E701E488
:10243D00254D04D54D0420050114122606E4C0E0F7
:10244D00122690784AE6601320E70714F6122290C0
:10245D00802204F6D0E014C0E07F00122290E54DFA
:10246D006007122287154D800B300503122287D08D
:10247D00E00222E1D0E00480C51225E960A0E54D1F
:10248D0004121B9E784AEAF6E54D20050260010410
:05249D002404122606D4
:1024A20074FF04C0E0122690122290E54D2005022E
:1024B2006003122287D0E0B54DE87F4512229A7858
:1024C2004AE67F2B30E7047F2DF404C0E01222A8F5
:1024D200D0E075F00A84C0F0122291D0E01222916D
:1024E2000222E1791080027908C206C2088008D26D
:1024F200D5790A8004790AC2D5E54D047002F54DFA
:10250200E4FAFDFEFF12226DFC7B08200113122269
:102512006DFD7B1030000A12226DFE12226DFF7BD0
:1025220020EC3382D592D55013C3E43000069FFFCE
:10253200E49EFEE42001039DFDE49CFCE4CBF8C292
:1025420001EC700CCFCECDCCE824F8F870F38017F4
:10255200C3EF33FFEE33FEED33FDEC33FCEB33FB25
:10256200994002FB0FD8E9EB300105F8D0E0C448EE
:10257200B201C0E00AEC4D4E4F78207B0070C2EAF7
:10258200B54D0040BCC0E0122608D0F0D0E02001DA
:1025920004C4C0E0C4B201C0F0122291D0F0D5F060
:1025A200EB0222E11221EE237E5324E558234F4C05
:1025B200234B4224E94F24F14424F1492364432468
:1025C200F75524284624864523F24726BD50235337
:1025D2002D23572E237A2B235B2323782026A62A0A
:1025E20023134800002372E54DB4FF03754D061214
:1025F200226DFC12226DFD12226DFE12226DFF78F9
:1026020043021BCD790AA2D5200314300509B91063
:10261200020404B9080104A2D520060250010420D4
:1026220002689202B54C005034C0E07F203003199A
:102632007F30A20272067205500F12265FC202C2DA
:1026420006C205C2087F30800F300503E9C0E012E0
:1026520022A8300503D0E0F9D0E0B54CCC30051704
:102662007F30B9100C1222A87F583004077F78807F
:1026720003B908031222A83002057F2D0222A87F87
:10268200202008F87F2B2006F322920280CF7F00C1
:10269200B4070050052443F8E6FF22286E756C6CDF
:1026A2002900D20112226D3001F8C201784C30D5D6
:1026B2000108F60223132D5043495812226D2403B8
:1026C200B405004001E49026B893122299743A129C
:0A26D2002299D203754C040224E59E
:101B5400E9D2E7C933E833F892D5EDD2E7CD33ECD7
:071B640033FC5002B2D52250
:101B6B00EC30E7100FBF000C0EBE00080DBD0004DB
:101B7B000BEB6014A2D5EB13FCED92E7FD2274FF87
:101B8B00FCFDFEFF22E480F8A2D574FF13FC7D80E0
:031B9B00E480EFF4
:101B9E00F920E72824F950037907E4F42402FB180E
:101BAE00DBFDE624FB5014E9600DE4F618E604F6BE
:0F1BBE00B40A08E4F6D9F57401F60A22C2D5225A
:101BCD00ED33EC3392D5FA602AB4FF33EDC2E77BE7
:101BDD00FF60067A1B79F2E4227A1B79FB20D5048B
:101BED007A1B79F6224E614E002B494E46002D4947
:101BFD004E4600E47A08F608DAFC7B00740722E80A
:101C0D00C0E0ECC0E0EDC0E0EEC0E0EFC0E0EA7592
:101C1D00F010A4CAABF075F04DA42BFBE435F0FC2D
:101C2D00EA2410FAEB34C5FBEC34D9FCEDC2E7FF26
:101C3D0075F056A4F42411C5F0F434C58FF0A42A20
:101C4D00E5F03BE43CF620E714121DF8D0E0FFD0A0
:101C5D00E0FED0E0FDD0E0FC121A798014F40412FD
:101C6D001DF8D0E0FFD0E0FED0E0FDD0E0FC121971
:101C7D0070D0E0F8E6FAEDD2E7CD33EC332482FBF9
:101C8D00E4C3CF33CFCE33CECD33CD33DBF37B07B0
:101C9D0075F00A846004F6081B0AE5F0F6088FF06B
:101CAD00740AA4FFACF08EF0740AA42CFEACF050B4
:101CBD00010C8DF0740AA42CFDE435F0F608DBDE82
:031CCD0074072277
:101CD000021B89E86480F8E933E83360110460F09E
:101CE000ED33EC337009E8FCE9FDEAFEEBFF22047A
:101CF00060DED3EB9FEA9EE99DE8C2E78CF0C2F775
:101D000095F0400CE8CCF8E9CDF9EACEFAEBCFFB40
:101D1000121B5485D0F05804700320D5B3E804702A
:101D2000075002B2D5021B9392D5EC0460F7E4CCC5
:101D3000C0E0C398F8603B94186008400DD0E0FB09
:101D4000021B6BE4FBFAC9FC8028E830E406E4C916
:101D5000FBE4CAFCE830E305E4C9CACBFCE854075D
:101D60006010F8C3E913F9EA13FAEB13FBEC13FC68
:101D7000D8F130F52FC3E49CFCEF9BFFEE9AFEED0B
:101D800099FDD0E0FBEF4E4D4C701222DB03021B9D
:101D900090EC2CFCEF33FFEE33FEED33FDED30E73E
:101DA000EB021B6BEF2BFFEE3AFEED39FDD0E0FBB3
:101DB00050130BBB0003021B93ED13FDEE13FEEF5C
:081DC00013FFEC13FC021B6B86
:101DC8003F8000004120000042C80000447A000023
:101DD800461C400047C35000497424004B189680A5
:101DE8004CBEBC205A0E1BCA6753C21C749DC5AE9C
:101DF800FB60065407601C2323121E26EB54386030
:101E080009121E12121E21121970ECF8EDF9EEFAE1
:101E1800EFCB22EB121E2180F1543803241C901DB5
:101E2800C8FE93FC0EEE93FD0EEE930ECE93FF22AA
:030000000239A220
:0C39A200787FE4F6D8FD75816E0239E9EB
:101E3800E709F608DFFA8046E709F208DFFA803E8C
:101E480088828C83E709F0A3DFFA8032E309F60879
:101E5800DFFA8078E309F208DFFA807088828C83E1
:101E6800E309F0A3DFFA806489828A83E0A3F60895
:101E7800DFFA805889828A83E0A3F208DFFA804C6F
:101E880080D280FA80C680D4806980F28033801046
:101E980080A680EA809A80A880DA80E280CA8033AF
:101EA80089828A83ECFAE493A3C8C582C8CCC58327
:101EB800CCF0A3C8C582C8CCC583CCDFE9DEE780F7
:101EC8000D89828A83E493A3F608DFF9ECFAA9F076
:101ED800EDFB2289828A83ECFAE0A3C8C582C8CCCC
:101EE800C583CCF0A3C8C582C8CCC583CCDFEADEE5
:101EF800E880DB89828A83E493A3F208DFF980CC47
:101F080088F0EF60010E4E60C388F0ED2402B4043F
:101F18000050B9F582EB2402B4040050AF232345E6
:061F28008223901E887365
:101F2E00BB010689828A83E0225002E722BBFE02B1
:091F3E00E32289828A83E49322E4
:101F4700BB010CE58229F582E5833AF583E022504F
:101F570006E92582F8E622BBFE06E92582F8E22299
:0D1F6700E58229F582E5833AF583E49322B3
:101F7400BB0111F8E58229F582E5833AF583E0C8CF
:101F840028F0E8225009C58229F8C58226C622BB5A
:101F9400FE0DC58229F8E2C5822582F2E58222EA95
:071FA4002583F583E9932278
:101FAB00BB010FF8E58229F582E5833AF583E0283A
:101FBB00F0225009C58229F8E58226F622BBFE09DC
:101FCB00C58229F8E22582F222F8EA2583F583E916
:031FDB0093282226
:101FDE00BB010689828A83F0225002F722BBFE01E2
:021FEE00F322DC
:101FF000F8BB010DE58229F582E5833AF583E8F027
:10200000225006E92582C8F622BBFE05E92582C8D2
:02201000F222BA
:10201200EF8DF0A4A8F0CF8CF0A428CE8DF0A42EE2
:02202200FE229C
:10202400C5F0F8A3E028F0C5F0F8E5821582700247
:062034001583E038F022E4
:10203A00A3F8E0C5F025F0F0E58215827002158359
:06204A00E0C838F0E822B6
:10205000BB010A89828A83E0F5F0A3E0225006875B
:10206000F009E71922BBFE07E3F5F009E31922891D
:0B207000828A83E493F5F07401932250
:10207B00BB0110E58229F582E5833AF583E0F5F0A3
:10208B00A3E0225009E92582F886F008E622BBFE80
:10209B000AE92582F8E2F5F008E222E5832AF583C6
:0820AB00E993F5F0A3E993228B
:1020B300BB010FF8E58229F582E5833AF583E8024F
:1020C300203A5011C58229F808C5F026C6F5F01844
:1020D300C58236C622BBFE15C58229F808E2C5F0C3
:1020E30025F0F218E2C5823582F2E58222E5832AE1
:0C20F300F583E993F5F0A3E993C5F02212
:1020FF00BB010789828A83022024500B09C5F02770
:10210F00F7C5F01937F722BBFE0D09F8E325F0F3F9
:10211F00C5F019E338F322F889828A837401932575
:08212F00F0C5F0F8E49338223A
:10213700BB010DC58229C582C5833AC58302202408
:102147005011C58229F808E5F026F618F5F0E58262
:1021570036F622BBFE11C58229F808E225F0F5F014
:10216700F218E23582F222F8E58229F582E5832A20
:0D217700F58374019325F0F5F0E493382210
:10218400BB010A89828A83F0E5F0A3F0225006F7A6
:0F21940009A7F01922BBFE06F3E5F009F31922A3
:1021A300F8BB0111E58229F582E5833AF583E8F06E
:1021B300E5F0A3F0225009E92582C8F608A6F0222B
:0D21C300BBFE09E92582C8F2E5F008F22212
:0E21D000C3E49FFFE49EFEE49DFDE49CFC2220
:1021DE00FAE6FB0808E6F925F0F618E6CA3AF62202
:1021EE00D083D082F8E4937012740193700DA3A380
:1021FE0093F8740193F5828883E473740293686094
:06220E00EFA3A3A380DF93
:10221400D083D082F8E4937012740193700DA3A359
:1022240093F8740193F5828883E473740293B5F090
:0D223400067403936860E9A3A3A3A380D8F8
:103DC300EFB40A07740D123DCE740A309811A89906
:103DD300B8130CC2983098FDA899C298B811F63060
:073DE30099FDC299F5992238
:103EA400E4FFFE121F2E600C0FEF70010E09E97083
:053EB400F20A80EF227C
:10224100EF4E6012EF60010EEDBB010B89828A83B4
:10225100F0A3DFFCDEFA2289F05007F709DFFCA9C1
:0C226100F022BBFEFCF309DFFCA9F02218
:1039AE000234AAE493A3F8E493A34003F68001F251
:1039BE0008DFF48029E493A3F85407240CC8C3331A
:1039CE00C4540F4420C8834004F456800146F6DFE9
:1039DE00E4800B0102040810204080900F79E47EF1
:1039EE00019360BCA3FF543F30E509541FFEE493DE
:1039FE00A360010ECF54C025E060A840B8E493A3A5
:103A0E00FAE493A3F8E493A3C8C582C8CAC583CACF
:103A1E00F0A3C8C582C8CAC583CADFE9DEE780BE87
:01196F000077
:00000001FF
