:0C3EE600C0A80190C0A80101FFFFFF0070
:103CCF00E4786AF6786AE6FFC39406500FEF25E0B2
:103CDF002452F8E4F608F6786A0680E8E4786AF683
:103CEF00786AE6FFC394065013EF75F01CA42421E5
:103CFF00F582E43408F583E4F00680E47850760426
:043D0F000876002210
:0A2CA0008B2C8A2D892E8C2F8D308D
:102CAA00785106E618700106C37850E6947D40050F
:102CBA007610087600E4786AF6786AE6FFC3940626
:102CCA005039EF75F01CA42408F9740835F0FA7B22
:102CDA00018B31F5328933900019121F4D6017129A
:102CEA000003AB31AA32A9339000041220816F701D
:102CFA0003EE65F060AA786A0680BE753100753207
:102D0A0000753300E4786AF6786AE6FFC3940650E1
:102D1A005FEF75F01CA42408F9740835F0FA7B01FA
:102D2A008B34F5358936900019121F4DFF700985CD
:102D3A0034318A3289338038EF6407702EE533459F
:102D4A0032601FAB34AA35A93690001A121F4DFF04
:102D5A00E516241AF582E43515F583E0FEEFD39ED5
:102D6A004009853431853532853633786A0680984C
:102D7A00E53345327004FBFAF922AB31AA32A933A2
:102D8A009000197402121FF67865E690000C121F63
:102D9A00F67866E690000D121FF67867E690000E48
:102DAA00121FF67868E690000F121FF69000127450
:102DBA000575F0A61221A9900014740575F0A612E3
:102DCA0021A9900010E475F0011221A990001BE4DA
:102DDA00121FF690001A7401121FF690001874035D
:102DEA00121FF6900016E4121FF6900017741012C4
:102DFA001FF6120003AB31AA32A933900004EE8FFA
:102E0A00F01221A9900006E52F8530F01221A9AB16
:102E1A002CAA2DA92E122056FFAB31AA32A933E5CE
:102E2A00F08FF012218AAB2CAA2DA92E9000021243
:102E3A002081FFAB31AA32A933900002E5F08FF06E
:032E4A001221A9A9
:012E4D002262
:103D7800E4786AF6786AE6FDC39406501CED25E0FF
:103D88002453F9E71947700CE625E02452F8A606F3
:0A3D980008A60722786A0680DB22E5
:0D3B81007863E64402F6786DE6FE08E6FF84
:103B8E00AD07AC06E5162408FFE43515FAA9077B48
:103B9E0001123BDBE5162408F582E43515F583E5C5
:103BAE0011F0E5162409F582E43515F583E512F0DA
:103BBE00E516240AF582E43515F583E513F0E516CE
:0D3BCE00240BF582E43515F583E514F02293
:10004600752C0185152D85162E750B01750C0875F9
:100056000DE6EF640260030201A9786806E6700CFB
:100066001806E670071806E670021806E4786DF6BC
:1000760008F6AB2CAA2DA92E900019121F4DFF646D
:10008600076004EFB4052190001A7401121FB190A5
:10009600001A121F4D64786003020F78AB2CAA2D4C
:1000A600A92E900019020E1EAB2CAA2DA92E900087
:1000B60019121F4D7003020F78900010122081450F
:1000C600F0700302018390001A74FF121F7A600316
:1000D600020F7890001B121F4DFF640860139000FA
:1000E60019121F4DFE64026004EEB40115EFB4034D
:1000F60011900019E4121FF6786376801226E20248
:100106000C08AB2CAA2DA92E90001B121F4DFFD355
:10011600940440067E047F0480007403A8070880C8
:1001260002C333D8FC90001A121FF690001B74010C
:10013600121FB1900019121F4D540F1470030206BE
:10014600FE24FE6023147003020AFA24FE700302E2
:100156000AFA24FE7003020AFA24066003020F78E4
:10016600E49008DFF0020704E4786DF608F6786B91
:10017600F608F6786376041226E2020CCBAB2CAABC
:100186002DA92E900019121F4D540F64036003020F
:100196000F78786DF608F6786BF608F678637608C9
:1001A600020BED9008BEE064456003020F78786D9F
:1001B600E6FF9008C0E06F7001E4600BE0FE08E621
:1001C600FDEE18F6ED08F6786EE6FF9008C1E06FD2
:1001D6007001E4600C18E6FE08E0FDEE18F6ED0886
:1001E600F69008C4E0543F6003020F78A3E0600372
:1001F600020F78903EE6E493FE740193FF9008CEDA
:10020600E06E7003A3E06F6003020F78903EE8E4AF
:1002160093FE740193FF9008D0E06E7003A3E06F25
:100226006003020F78123EFBEFF47002EEF46003F7
:10023600020F789008C7E0640670030202D09008A7
:10024600C7E064016003020F789008D2E06408609A
:1002560003020F78E49008D2F0C39008D5E094FF2B
:100266009008D4E094F74006A3E0240180069008A5
:10027600D5E02400F09008D4E03408F09008CEE0F1
:10028600FEA3E0FF7861EEF6FE08EFF69008CAE0FE
:10029600FDA3E09008CECDF0A3EDF09008CAEEF0F5
:1002A600A3EFF09008D0E0FEA3E0FF18EEF6FE08FC
:1002B600EFF69008CCE0FDA3E09008D0CDF0A3EDDA
:1002C600F09008CCEEF0A3EFF0221230F7EFF470C6
:1002D60002EEF46003020F78752C01752D08752E59
:1002E60008C39008B0E52E9582E52D95835069AB3D
:1002F6002CAA2DA92E900019121F4D604E900004B5
:10030600122081FF9008D4E065F07003A3E06F70BF
:100316003A900006122081FF9008D2E0B5F02CA397
:10032600E0B50727122056FF9008CAE0B5F01CA3D7
:10033600E0B50717900002122081FF9008CCE06517
:10034600F07003A3E06F700302072C741C252EF5D2
:100356002EE4352DF52D80899008DFE0543F6402A8
:1003660070369008D4E0FEA3E0FF7861A60608A6E2
:1003760007E4786AF6786AE6FFC39406501AEF2512
:10038600E02453F97862E667700418E6196770038B
:10039600020499786A0680DD9008DFE030E2030205
:1003A6000F789008DF7414F0786D76000876289040
:1003B60008DE7450F09008D9E0786AF6FF9008DD00
:1003C600E09008D9F09008DDEFF09008D8E0F6FF4D
:1003D6009008DCE09008D8F09008DCEFF09008D7A1
:1003E600E0F6FF9008DBE09008D7F09008DBEFF02E
:1003F6009008D6E0F6FF9008DAE09008D6F090086C
:10040600DAEFF09008DDE004F070169008DCE00406
:10041600F0700E9008DBE004F070069008DAE00455
:10042600F09008D2E0FEA3E0FF7861EEF6FE08EF5A
:10043600F6A3E0FDA3E09008D2CDF0A3EDF0A3EE85
:10044600F0A3EFF09008CEE0FEA3E0FF18EEF6FE74
:1004560008EFF69008CAE0FDA3E09008CECDF0A321
:10046600EDF09008CAEEF0A3EFF09008D0E0FEA3FE
:10047600E0FF18EEF6FE08EFF69008CCE0FDA3E0EC
:100486009008D0CDF0A3EDF09008CCEEF0A3EFF0FD
:10049600020F10752C00752DFF752EFFE4786AF695
:1004A600786AE6FFC394064003020531EF75F01C37
:1004B600A42421F582E43408F583E07015E675F08E
:1004C6001CA42408F9740835F0752C01F52D892E25
:1004D6008059786AE6FF75F01CA42421F582E4347D
:1004E60008F583E06407703DAB2CAA2DA92EAC025B
:1004F600AD01ED4C601A90001A121F4DFEEF75F01B
:100506001CA42422F582E43408F583E0D39E40152A
:10051600786AE675F01CA42408F9740835F0752C81
:1005260001F52D892E786A060204A6E52EF47003DD
:10053600E52DF47003020F78AB2CAA2DA92EAE027E
:10054600AF018E158F1690001A7403121FF69000D5
:10055600187403121FF6900016E4121FF690001787
:100566007404121FF690001BE4121FF69008D4E0E4
:10057600FFA3E0900004CF8FF01221A99008D2E0EB
:10058600FFA3E0900006CF8FF01221A99008CAE0E1
:10059600FFA3E0CF8FF012218A9008CCE0FFA3E002
:1005A600AB2CAA2DA92E900002CF8FF01221A99074
:1005B60000197401121FF67865E690000C121FF6FA
:1005C6007866E690000D121FF67867E690000E1228
:1005D6001FF67868E690000F121FF6900010E4757B
:1005E600F0011221A99008D9E090000B121FF69095
:1005F60008D8E090000A121FF69008D7E09000098C
:10060600121FF69008D6E0900008121FF67F017EB2
:1006160000123B8E9008DEE054F0D3945050030253
:1006260006FEE4786AF69008DEE0C4540F24FBFF69
:10063600E434FFFEEF7802C333CE33CED8F9FF7829
:100646006AE6FDC39FEE6480F87480984003020654
:10065600FE74E62DF582E43408F583E07869F670D9
:10066600030206FE7869E6FFB40104080680B7EFC8
:1006760064027062786AE6FD24E7F582E43408F5E0
:1006860083E06404705074E82DF582E43408F58341
:10069600E0FE74E92DF582E43408F583E0FDEDFF14
:1006A6007861EEF608EFF6D394A6EE940540067E42
:1006B600057FA680077861E6FE08E6FFAB2CAA2D2B
:1006C600A92E900012EE8FF01221A9900014EE8F41
:1006D600F01221A98022786AE6FF24E7F582E43445
:1006E60008F583E0601274E72FF582E43408F58399
:1006F600E0786A26F602062C9008DF7410F090085F
:10070600DFE04402F09008E67402F0A37404F0A35C
:1007160004F0A374A6F0786D760008762C9008DEB7
:100726007460F0020E37AB2CAA2DA92EAE02AF01D3
:100736008E158F16E47863F69008DFE030E20E90AF
:100746000019E4121FF678637620020D3D9008DE4C
:10075600E0C4540F25E025E0FF786AF6C3786EE61C
:100766009FFF18E69400CF24EC08F6EF34FF18F646
:10077600D308E6940018E69400404AAB2CAA2DA9AB
:100786002E900008121F4DFF9008D6E06F600302FE
:100796000E24900009121F4DFF9008D7E06F6003EA
:1007A600020E2490000A121F4DFF9008D8E06F60D9
:1007B60003020E2490000B121F4DFF9008D9E06F24
:1007C6006003020E249008DFE020E4030208D2ABA7
:1007D6002CAA2DA92E900010122081FDACF04C7091
:1007E600030208D2E9240CF9E43AFA123BDB90083A
:1007F600DAE0651160030208D2A3E0651260030225
:1008060008D2A3E0651360030208D2A3E065146072
:10081600030208D2AB2CAA2DA92E90000CE51112CA
:100826001FF690000DE512121FF690000EE513124A
:100836001FF690000FE514121FF690001B121F4DB5
:020846007074CC
:10084800AB2CAA2DA92E90001A121F4DFF9000184C
:10085800121F4DC39FF52F900016121F4D1313132F
:10086800541FFFC3E52F9FF52F900016121FB1C329
:10087800E52F648094805006E52FF404F52FAB2C07
:10088800AA2DA92E900017121F4D1313543FFFC312
:10089800E52F9FF52F900017121FB1900016121F19
:1008A8004D131313541FFF900017121F4D2F900064
:0408B80018121FF6FD
:1008BC0078637601AB2CAA2DA92E900018121F4D2F
:1008CC0090001A121FF6AB2CAA2DA92E900019120B
:1008DC001F4D540F14B408004003020F789008F712
:1008EC0075F003A4C58325F0C5837302090F0209B3
:1008FC0045020A9B020D43020DB7020E03020E24A1
:10090C00020D237863E620E003020F78900019743F
:10091C0003121FF678637640900010E4F5F0122174
:10092C00A9D3786EE6940018E694004003123B813C
:10093C00E4786BF608F6020BED7863E620E0030230
:10094C00039E9008DFE06412600302039E9008DEB1
:10095C00E054F0D394505003020A3DE4786AF690C8
:10096C0008DEE0C4540F24FBFFE434FFFEEF7802F2
:10097C00C333CE33CED8F9FF786AE6FDC39FEE645D
:10098C0080F87480984003020A3D74E62DF582E4E9
:10099C003408F583E07869F67003020A3D7869E65D
:1009AC00FFB40104080680B7EF64027062786AE64F
:1009BC00FD24E7F582E43408F583E0640470507498
:1009CC00E82DF582E43408F583E0FE74E92DF58218
:1009DC00E43408F583E0FDEDFF7861EEF608EFF600
:1009EC00D394A6EE940540067E057FA68007786119
:1009FC00E6FE08E6FFAB2CAA2DA92E900012EE8F76
:100A0C00F01221A9900014EE8FF01221A980227807
:100A1C006AE6FF24E7F582E43408F583E06012749B
:100A2C00E72FF582E43408F583E0786A26F60209AC
:100A3C006BAB2CAA2DA92E9000197403121FF690E3
:100A4C0008D6E0900008121FF69008D7E090000935
:100A5C00121FF69008D8E090000A121FF69008D9E1
:100A6C00E090000B121FF67F017E00123B8E786324
:100A7C007642AB2CAA2DA92E900010E4F5F0122191
:100A8C00A9E4786DF608F6786BF608F6020BED9093
:100A9C0008DFE030E05BAB2CAA2DA92E90001012E1
:100AAC00208145F06003020F78786EE62401FF1870
:100ABC00E436FE123B8E78637610D3786EE69400A3
:100ACC0018E6940040067863E64402F61226E2AB80
:100ADC002CAA2DA92E900010E475F0011221A990DA
:100AEC0000197408121FF690001BE4121FF6020C7A
:100AFC003B9008DFE030E5469008E4A3E07864F62C
:100B0C00E6D3786E96E41896400508E67864F67895
:100B1C0064E6FF7E00123B8E7864E6FFC3786EE6D7
:100B2C009FF618E69400F6850B0E850C0F850D10BC
:100B3C007864E6250DF50DE4350CF50C8027E4788A
:100B4C0064F69008E4E0FEA3E0FDED250DF50DEE56
:100B5C00350CF50C9008E4E0FEEDFFC3786EE69FD3
:100B6C00F618E69EF6D3786EE6940018E6940040EC
:100B7C0012AB2CAA2DA92E900019121F4D20E403A4
:100B8C00123B819008E0E0FEA3E07C002400FFEC27
:100B9C003EFE7861F608EFF6AB2CAA2DA92E90003C
:100BAC0014122081FDACF0D3EF9DEE9C50077862BF
:100BBC00E6184670077861A60408A6057861E6FF7A
:100BCC0008E6AB2CAA2DA92E900012CF8FF0122183
:100BDC00A97863E654037003020F78E4786BF60887
:100BEC00F61226E27863E630E51BE4786BF608F63D
:100BFC00AB2CAA2DA92E900019121FF69008DF74A9
:100C0C0014F0020E2A7863E630E42DE4786BF608D3
:100C1C00F6AB2CAA2DA92E90001075F0011221A96B
:100C2C009000197404121FF690001BE4121FF6902A
:100C3C0008DF7411F0020E2AD3786CE6940018E6E3
:100C4C009400405F7863E630E00FAB2CAA2DA92E00
:100C5C00900010E4F5F01221A9AB2CAA2DA92E902E
:100C6C00001012208145F07026900012122081FF96
:100C7C00AEF0D3786CE69F18E69E4005A60608A653
:100C8C0007786BE6FF08E6900010CF8FF08020AB62
:100C9C002CAA2DA92E900010122081786BA6F0089A
:100CAC00F6800FAB2CAA2DA92E900010E4F5F012B3
:100CBC0021A9AB2CAA2DA92E90001BE4121FF6859E
:100CCC00080B85090C850A0DD3786CE6940018E6A0
:100CDC009400402AAB2CAA2DA92E90001012208132
:100CEC00FFAEF0D39400EE94004013EF2428786EFE
:100CFC00F6E43E18F69008DF7418F0020E317863B3
:100D0C00E620E103020F78786D76000876289008CB
:100D1C00DF7410F0020E317863E620E003020F78E6
:100D2C00AB2CAA2DA92E900019E4121FF67863762D
:100D3C00101226E2020F78D3786EE6940018E6942F
:100D4C00004003123B899008DFE030E02D7863E629
:100D5C00AB2CAA2DA92E90001930E0177407121F86
:100D6C00F690001AE4121FF6900010E4F5F0122130
:100D7C00A980637406121FF6805C7863E630E01A73
:100D8C00AB2CAA2DA92E9000197405121FF69000F9
:100D9C0010E4F5F01221A9020F78D3786EE69400D6
:100DAC0018E694005003020F78806DD3786EE694A9
:100DBC000018E694004003123B899008DFE030E015
:100DCC0025AB2CAA2DA92E9000197407121FF69092
:100DDC00001AE4121FF67F017E00123B8E786376B8
:100DEC00101226E28032D3786EE6940018E6940056
:100DFC005003020F7880217863E620E003020F781D
:100E0C00AB2CAA2DA92E9000197407121FF6900076
:100E1C001AE4121FF6020F789008DF7410F0786D48
:100E2C0076000876289008DE7450F0AB2CAA2DA919
:100E3C002E900008121F4D9008DAF0900009121F36
:100E4C004D9008DBF090000A121F4D9008DCF090DA
:100E5C00000B121F4D9008DDF090000C121F4D90EE
:100E6C0008D6F090000D121F4D9008D7F090000E90
:100E7C00121F4D9008D8F090000F121F4D9008D9FA
:100E8C00F09008C77406F0900004122081FF9008BF
:100E9C00D2E5F0F0A3EFF0900006122081FF90084D
:100EAC00D4E5F0F0A3EFF0903EE6E493FF740193E9
:100EBC009008CACFF0A3EFF0903EE8E493FF7401E2
:100ECC00939008CCCFF0A3EFF0122056FF9008CEF1
:100EDC00E5F0F0A3EFF0900002122081FF9008D013
:100EEC00E5F0F0A3EFF0900019121F4D30E40BE485
:100EFC009008E1F09008E0F0800A9008E07405F0AA
:100F0C00A374DCF0786DE69008C0F008E6A3F0E47A
:100F1C009008E2F0A3F01230F7EFF4FFEEF4900833
:100F2C00E2F0A3EFF09008BE7445F0E4A3F0900853
:100F3C00C5F09008C4F09008C674FFF0785F06E620
:100F4C0018700106785EE6FC08E6FDEC9008C2F02D
:100F5C00AF05EFA3F0E49008C8F0A3F0123EFBEF4E
:100F6C00F4FFEEF49008C8F0A3EFF022E4786DF6ED
:020F7C0008F675
:010F7E002250
:070003007850E6FE08E6FF5D
:01000A0022D3
:103BDB008C308D31900003121F4D2531F514900060
:103BEB0002121F4DFDE5302DF513900001121F4DF4
:103BFB00F512121F34F511E530FFAD13C3ED9FE441
:103C0B00940050080512E51270020511AD14C3EDB6
:103C1B009531E49400500E0513E51370080512E579
:063C2B00127002051122D7
:06387F007B017D147C00BA
:063885008B348A35893600
:10388B00E4F537F538D3ED9401EC9400403BAB34C1
:10389B00AA35A936122056FFAEF02538F538EE358D
:1038AB0037F537C3E5389FE5379E50080538E538BF
:1038BB007002053774022536F536E43535F5357467
:1038CB00FE2DFD74FF3CFC80BCED64014C7039ABEC
:1038DB0034AA35A936121F347F00FE12000AEF25D9
:1038EB0038F538EE3537F537AB34AA35A936121F14
:1038FB00347F00FE12000AC3E5389FE5379E50085F
:0C390B000538E53870020537AE37AF38DC
:01391700228D
:083EFB007A0879BE12387F221B
:1030F7007A0879D212387F8E308F31AB0BAA0CA9A0
:103107000D9008C0E0FEA3E07C002400FFEC3ECF5A
:1031170024D8FDEF34FFFC1238858E328F33E5312A
:103127002533FFF533E5303532FEF532C3EF953100
:10313700EE953050080533E533700205329008CA22
:10314700E0FEA3E0FF2533FDF533EE3532FCF53223
:10315700D3EF9DEE9C40080533E5337002053290AE
:1031670008CCE0FEA3E0FF2533FDF533EE3532FC56
:10317700F532D3EF9DEE9C40080533E53370020529
:10318700329008CEE0FEA3E0FF2533FDF533EE35A0
:1031970032FCF532D3EF9DEE9C40080533E53370E2
:1031A7000205329008D0E0FEA3E0FF2533FDF5339A
:1031B700EE3532FCF532D3EF9DEE9C40080533E542
:1031C70033700205327F067E0012000AEF2533FDB9
:1031D700F533EE3532FCF532C004C0057F067E00BC
:1031E70012000AD005D004C3ED9FEC9E50080533AA
:1031F700E533700205329008C0E0FEA3E07C0024AE
:1032070000FFEC3ECF24ECCF34FFFE12000A8E30D5
:103217008F31E5312533FFF533E5303532FEF532B1
:10322700C3EF9531EE953050080533E5337002054D
:0532370032AE32AF339E
:01323C00226F
:090F7F0046145C00BD3B33057112
:103D1300E49014D1F09014D1E0FFC3940A5027909B
:103D23000004C083C0827D00EF75F00BA42462F908
:103D3300741435F0FA7B01D007D006122247901491
:073D4300D1E004F080CF2263
:103B23009014D2E004F0E49014D1F09014D1E0FFAB
:103B3300C3940A5048EF75F00BA42462F97414354A
:103B4300F0FA7B01900002122081FFAEF0122056A2
:103B5300FDE5F04EFEED4F4E601B90000A121F4D27
:103B6300FF9014D2E0C39FC3947840097E007F0482
:0D3B73007D001222479014D1E004F080AED6
:013B80002222
:062E4E008B2C8A2D892E59
:102E5400E49014D1F09014D1E0FFC3940A506DEFC4
:102E640075F00BA42462F9741435F0FA7B018B32EB
:102E7400F533893412205645F06049AB3290000294
:102E840012208145F0603D122056FFAEF0AB2CAA13
:102E94002DA92E1220566F7003E5F06E7026AB320A
:102EA400AA33A934900002122081FFAEF0AB2CAA01
:102EB4002DA92E900002122081B50708E5F0B50671
:102EC40003022F839014D1E004F08089E49014D19C
:102ED400F09014D1E0FFC3940A5030EF75F00BA4C6
:102EE4002462F9741435F0FA7B018B32F53389349A
:102EF40012205645F0700CAB32900002122081452E
:102F0400F060089014D1E004F080C69014D1E0641D
:102F14000A705990145BF09014D0F0A3F09014D17F
:102F2400E0FFC3940A503FEF75F00BA42462F974D8
:102F34001435F0FA7B018B32F533893490000A1290
:102F44001F4DFF9014D2E0C39FFF90145BE0FEEF8F
:102F5400D39E400AEFF09014D1E09014D0F0901476
:102F6400D1E004F080B79014D0E0A3F0A834AC33DF
:102F7400AD32AB2CAA2DA92E7E007F04121F0EE5C4
:102F8400342404F9E43533A801FCAD32AB2FAA3064
:102F9400A9317E007F06121F0E9014D2E0AB32AA34
:092FA40033A93490000A121FF653
:012FAD002201
:103A3400786E74F226F61874FF36F6903EEEE49330
:103A4400FE740193FF903EE6E4935EFE7401935F7F
:103A5400FF903EEEE493FC740193FD9008CAE05C91
:103A6400FCA3E05DB50746ECB50642903EF0E49356
:103A7400FE740193FF903EE8E4935EFE7401935F4D
:103A8400FF903EF0E493FC740193FD9008CCE05C5D
:103A9400FCA3E05DB50716ECB50612752F01753071
:0E3AA400087531B67B017A0879CA122E4E22BF
:102FAE00C3786EE6942A18E694005005E4F608F607
:102FBE0022E4786DF608F69008C4E0FEA3E0FFEE7A
:102FCE0060030230F6EF24FE70030230B804600393
:102FDE000230F6903EE6E493FE740193FF9008D61D
:102FEE00E06E7003A3E06F60030230F6903EE8934C
:102FFE00FE740193FF9008D8E06E7003A3E06F603B
:10300E00030230F69008C4F0A37402F078D07C0866
:10301E007D017B017A0879C67E007F06121F0E782D
:10302E00C67C087D017B017A14795C7E007F0612D6
:10303E001F0E78B67C087D017B017A14795C7E00C8
:10304E007F06121F0E78B07C087D017B017A08790D
:10305E00D07E007F06121F0E9008CCE0FFA3E090FA
:10306E0008D6CFF0A3EFF09008CEE0FFA3E09008D3
:10307E00D8CFF0A3EFF0903EE6E493FF7401939067
:10308E0008CCCFF0A3EFF0903EE8E493FF740193E9
:10309E009008CECFF0A3EFF09008BC7408F0A374A4
:1030AE0006F0786D760008762A22903EE6E493FECE
:1030BE00740193FF9008D6E0B5062DA3E0B507285E
:1030CE00903EE8E493FE740193FF9008D8E0B506B5
:1030DE0017A3E0B50712752F017530087531C67B41
:0930EE00017A0879CC122E4E2261
:102AAA00903EEEE493FE740193FF903EE6E4935E5B
:102ABA00FE7401935FFF903EEEE493FC740193FD74
:102ACA009008CEE05CFCA3E05DB50738ECB50634AF
:102ADA00903EF0E493FE740193FF903EE8E4935E27
:102AEA00FE7401935FFF903EF0E493FC740193FD42
:102AFA009008D0E0FAA3E0FBEA5CFCEB5D6F7002A1
:102B0A00EC6E6024903EEAE493FF7401939014D330
:102B1A00CFF0A3EFF0903EECE493FF74019390148E
:102B2A00D5CFF0A3EFF080159008CEE0FFA3E09098
:102B3A0014D3CFF0A3EFF0A3EAF0A3EBF0E49014E0
:102B4A00D1F09014D1E0FFC3940A5043EF75F00B13
:102B5A00A42462F9741435F0FA7B018B2CF52D89C3
:102B6A002E122056FF9014D3E0B5F01BA3E0B50750
:102B7A0016AB2C900002122081FF9014D5E065F06C
:102B8A007003A3E06F60089014D1E004F080B39062
:102B9A0014D1E0640A6003022C61FE7F067DFF7B8C
:102BAA00017A0879B01222477E007F067D007B01F8
:102BBA007A0879D012224778B67C087D017B017A9F
:102BCA0014795C7E007F06121F0E78C67C087D0190
:102BDA007B017A14795C7E007F06121F0E9014D353
:102BEA00E0FFA3E09008D6CFF0A3EFF09014D5E071
:102BFA00FFA3E09008D8CFF0A3EFF0903EE6E4936D
:102C0A00FF7401939008CCCFF0A3EFF0903EE8E474
:102C1A0093FF7401939008CECFF0A3EFF09008C40D
:102C2A00E4F0A304F09008BEE4F0A304F0A374084F
:102C3A00F0A3E4F0A37406F0A37404F09008BC7443
:102C4A0008F0A37406F0750B01750C08750DE6788B
:102C5A006D760008762A22AB2CE52E2404F9E43599
:102C6A002DFA78B07C087D017E007F06121F0E784F
:102C7A00B67C087D017B017A14795C7E007F06129E
:102C8A001F0E9008BC7408F0A3E4F0786E740E2648
:052C9A00F618E436F617
:012C9F002212
:103C31002530342E326600736574206F6B2C207032
:103C41006C65617365206368616E6765206275618B
:103C5100726420726174650D0A00BDA8C1A2C1AC75
:103C6100BDD30D0A00727374200064697363200070
:103C710070B8DCEEF4F7FAFD48656C6C6F20776F75
:063C8100726C640D0A00E4
:100F880061C8128E485454502F312E3020323030E0
:100F9800204F4B0A436F6E74656E742D54797065DB
:100FA8003A20746578742F68746D6C0A0A3C68740A
:100FB8006D6C3E3C6D65746120687474702D65714C
:100FC8007569763D7265667265736820636F6E74C5
:100FD800656E743D333E3C626F64793E3C63656E7A
:100FE8007465723E3C68313EBBF9D3DA574542B569
:100FF800C4BCE0BFD8CFB5CDB3C9E8BCC6B2E2CA5D
:10100800D4D2B3C3E63C2F68313E3C68333EBFAA16
:10101800B9D8C1BFBFD8D6C63A3C2F68333E3C6268
:10102800723E3C703EB5E3BBF7B0B4C5A5D2D4BFA1
:10103800AAC6F4BBF2B9D8B1D54C45442031B6D4D0
:10104800D3A64C4544C3F02030B6D4D3A64C45446F
:10105800C1C13C2F703E3C2F63656E7465723E3C87
:10106800666F726D20616374696F6E3D7377632E6E
:1010780068746D6C3E3C7461626C6520616C696774
:101088006E3D63656E7465723E3C747220616C6976
:10109800676E3D63656E7465723E3C74643E5031A4
:1010A8005F373A266E6273703C696E70757420748F
:1010B8007970653D7375626D6974206E616D653D0B
:1010C8007377372076616C75653D313E3C2F7464CB
:1010D8003E3C74643E50315F363A266E6273703C13
:1010E800696E70757420747970653D7375626D6989
:1010F80074206E616D653D7377362076616C756519
:101108003D313E3C2F74643E3C2F74723E3C2F743C
:1011180061626C653E3C2F666F726D3E3C63656E26
:101128007465723E3C68333EC6BDCCA8B5E7D1B9FC
:101138003A2030352E3030563C2F68333E3C2F62F3
:0C1148006F64793E3C2F68746D6C3E00B3
:10000E007F8F7E1F123D787F907E1F123D787F502E
:05001E007E00023D78A8
:1026E200E5162404F582E43515F583E0FEA3E08EB9
:1026F200F012221A2706005028CA1F8F296B1F903A
:1027020000002A187863E630E608E4901456F0A335
:10271200F0227863E630E31D901456E475F001125E
:102722002040FEC3E5F0940AEE94005003022AA969
:1027320078637620227863E620E103022840AB0B1F
:10274200AA0CA90D121F34B4471C900001121F4D90
:10275200B44513900002121F4DB4540A90000312A4
:102762001F4D6420600478637620900004121F4D90
:10277200642F7066900005121F4D6473705C9000A8
:1027820006121F4D64777052900007121F4D64634A
:102792007048900010121F4DB4371B900012121F88
:1027A2004DB4310AC2979013D47430F08008D29796
:1027B2009013D47431F0900010121F4DB4361B9058
:1027C2000012121F4DB4310AC29690140B7430F0ED
:0A27D2008008D29690140B7431F0C9
:1027DC00123E36AC06AD07E4121B21E4FBFA79A0DD
:1027EC007840121976E4FBFA79807844121A7F8FBC
:1027FC003D8E3C8D3B8C3A7537FF75383C753931C5
:10280C007B017A1479D71222CF783C7C147D017B22
:0C281C00017A1479D77E007F05121F0E90
:102828009014587401F0A37412F0A3748EF09014ED
:10283800567401F0A374C7F07863E630E05BE516E0
:102848002410F582E43515F583E0FEA3E0FF90142B
:1028580056E0FAA3E0FBC39FEA9E4028E516241041
:10286800F582E43515F583E0FCA3E0FDC3EB9DFE9E
:10287800EA9C901456F0A3CEF0901459EC8DF01207
:10288800202A8007E4901456F0A3F0901456E070C4
:1028980002A3E07004786376107863E630E30302FD
:1028A8002AA9901458E0FBA3E0FAA3E08B088A0950
:1028B800F50A901456E0FEA3E0FF786BA60608A67A
:1028C80007227863E620E103022AA9AB0BAA0CA928
:1028D8000D121F3464736003022AA9900001121FAD
:1028E8004D64656003022AA9900002121F4D6474AA
:1028F8006003022AA9900003121F4D64636003025B
:102908002AA9900004121F4D646F6003022AA9903F
:0C2918000005121F4D646D6003022AA927
:102924007BFF7A3C7938123D4A7FF47E01120026FF
:10293400AB0BAA0CA90D900006121F4D24D0F53143
:10294400E434FFF530C394005003022AA9D3E531DF
:102954009407E53094004003022AA9E531903C71C4
:0629640093F58D858D8BBB
:10296A00227863E630E135786EE61846602EE4F5A3
:10297A0030F531C3E531786E96E5301896501DABC7
:10298A000BAA0CA90D853182853083121F4DFF12C7
:10299A003AB20531E53170DB053080D77863E6203D
:0529AA00E303022AA96D
:1029AF00900002E0FEA3E0FFC3900001E09FF5332B
:1029BF00900000E09EF532D3E5339400E5329400A9
:1029CF005003022AA9E4F530F531C3E5319533E51B
:1029DF00309532501B123C87748E2531F582740E60
:1029EF003530F583EFF00531E53170DE053080DAF3
:1029FF00786BA63208A63375080175090E750A8E15
:072A0F0018E6FE08E6FF18BF
:102A16008068E5162406F582E43515F583E0FEA305
:102A2600E064B87003EE642270797863E630E632CB
:102A36007BFF7A3C795B123D4A7BFF7A3C797912BF
:102A46003EAA786BA60608A6077508FF75093C75A9
:102A56000A7918E6FE08E6FF18A60608A6077517FF
:012A6600016E
:102A6700227863E630E118850B08850C09850D0A85
:102A7700786DE6FE08E6FF786BA60608A6072278BB
:102A870063E630E50BE4F5177BFF7A3C7966800F48
:102A97007863E630E40CE4F5177BFF7A3C796B1238
:022AA7003D4AA6
:012AA900220A
:103ED3000D0A00696E6974206F6B0D0A0073796EA9
:033EE30063200059
:0611540001170001180163
:1034B000123DA2123DF0123E91E4F5197BFF7A3ED7
:1034C00079D3123D4A0519E519C3941440EE123C14
:1034D000CF1235DE123D1312000ED2AF7BFF7A3EC3
:1034E00079D6123D4A02357BE517703DAF180518B5
:0934F000EF75F00F84E5F0703077
:1034F900F529F52AF52B7525C07526A875270175B7
:103509002802FB7A0079257DB87C22122CA08B2910
:103519008A2A892B7517017BFF7A3E79E0123D4A89
:10352900123EBF786DA60608A607E618467049F54B
:1035390019E51975F01CA42408F582E43408AF8252
:10354900F5158F167F02120046D3786EE69400189F
:10355900E694004006122AAA1237C70519E519C3CD
:10356900940640CD051AE51A641460030234E81282
:103579003B23E4F51A0234E87F007E0812000A9022
:1035890008BCE0B50621A3E0B5071C123A347F0157
:10359900120046D3786EE6940018E69400500302B0
:1035A90034E8122AAA80287F067E0812000A9008A9
:1035B900BCE06E7003A3E06F60030234E8122FAE23
:1035C900D3786EE6940018E6940050030234E812AA
:0535D90037C70234E8D1
:10115A00640400000000000000000000000000001D
:10116A000000000000000000000000000000000075
:10117A000000000000000000000000000000000065
:10118A000000000000000000000000000000000055
:10119A000000000000000000000000000000000045
:10155A000000000000000000640404040000000011
:10156A000000000000000000000000000000000071
:10157A000000000000000000000000000000000061
:10158A000000000000000000000000000000000051
:10159A000000000000000000000000000000000041
:05196A00011D01C1098F
:103E9100E4900404F0A3F0A3F0A3F0751D019000D9
:093EA10000F0A3F0A3F0A3F0224D
:023AB2008F374C
:103AB400753801753904753A04900406E0FEA3E0F4
:103AC400FFC3900405E09F900404E09EC394044067
:103AD400057EFF7FFF22C2ACAB38E53A2404F9E44B
:103AE4003539FAC002C001AA39A93A122056FFE5B5
:103AF400F05403FED001D002E92FF9EA3EFAE5378B
:103B0400121FE4AB38AA39A93AE475F00112210571
:0E3B1400D2ACE51D6005E4F51DD299E4FEFF7C
:013B22002280
:103D4A008B348A358936AB34AA35A936121F3460CA
:103D5A00130536E5367002053514F9121F34FF12C1
:0E3D6A003AB280E27F0D123AB27F0A023AB2FC
:103C87007B017A007900900002E0FEA3E0FFC39079
:103C97000001E09FFF900000E09E4F70057EFF7FD0
:103CA700FF22C2AC900002E475F0011220B9540360
:103CB700FEE92404F9E43AFAE925F0F9EA3EFA12B2
:073CC7001F34FF7E00D2ACA8
:013CCE0022D3
:103DA200E589540F4420F589758DEE438E40858D4B
:103DB2008B759850D28ED2ACD299759A50759CFD63
:073DC200438E1475AF0122CE
:030023000236E9B9
:1036E900C0E0C0F0C083C082C0D075D000C000C0A7
:0D36F90001C002C003C004C005C006C00728
:10370600309954C2997B017A0479048B228A2389E1
:1037160024900002122081FFAEF01220566F700333
:10372600E5F06E602FAB22EE5403FEE5242404F987
:10373600E43523FAE92FF9EA3EFA121F34F599AB7C
:1037460022AA23A924900002E475F00112213D75F6
:103756001D008003751D0130984CC2987B017A00CC
:1037660079008B228A238924900002122081FFAEE1
:10377600F0122056FDACF0C39FEC9E54FC7027ABB4
:1037860022E5242404F9E43523FAEC5403FEE92D5A
:10379600F9EA3EFAE599121FE4AB22AA23A924E42A
:0637A60075F0011221057F
:1037AC00D007D006D005D004D003D002D001D00071
:0B37BC00D0D0D082D083D0F0D0E0321B
:03004300023E7703
:103E7700C0E0E59A30E006539AFE859B9BE59A30B1
:0A3E8700E105539AFDC209D0E032B4
:03196F00011E0353
:103DF000AF1E7401A807088002C333D8FCF59DE408
:103E0000F5BDE51E4488F5BC7F027E0012002653F6
:033E1000BCEF22E2
:103E3600E51E4488F5BC000000000000AFBDEF752C
:103E4600F004A4FFAEF0E5BE5403FDEF4DFF53BCF6
:013E5600EF7C
:013E57002248
:10002600EF1FAA0670011E4A60107C137D88ED1D25
:0A003600AA0470011C4A60E880F47F
:01004000229D
:10391800D0B4C8EB4D41433A253032782D253032AA
:10392800782D253032782D253032782D2530327893
:103938002D253032780D0A00B6C1B3F64D41433A11
:10394800253032782D253032782D253032782D25C6
:103958003032782D253032782D253032780D0A0016
:103968006E6963207265736574206661696C0D0AFF
:10397800006E6963207265736574206F6B0D0A00B1
:103988006E6963206964206572726F720D0A006E39
:10399800696320696420636F72726563740D0A003D
:03197200011F0052
:073F0300AE071FEE70FA2269
:063E1300C2967FC87E008C
:103E19007C007D0C122018AA06AB07EB1BAE0270C2
:0D3E2900011A4E60077F97123F0380EF22C1
:0C3E58007F01123E64908007E0FCE4FF54
:103E6400908000E0FE53063BEFC4333354C0420657
:023E7400EEF06E
:013E76002229
:10337E007F01123E64908001E4F0A374BDF0A3744B
:10338E003BF0A37433F0A37405F0A37471F0E490D2
:10339E0014D7F0A3F0A3F0A374BDF0A3E4F0A374CC
:1033AE003BF0A3E4F0A37433F0A3E4F0A37405F0B0
:1033BE00A3E4F0A37471F07537FF753839753918B9
:1033CE009014D7E0F53AA3E0F53BA3E0F53CA3E07B
:1033DE00F53DA3E0F53EA3E0F53FA3E0F540A3E005
:1033EE00F541A3E0F542A3E0F54375440075457140
:1033FE007B017A1479E31222CF7B017A1479E312DE
:10340E003D4A908001E0FF9014D7E4F0A3EFF090D6
:10341E008002E0FF9014D9E4F0A3EFF0908003E077
:10342E00FF9014DBE4F0A3EFF0908004E0FF901423
:10343E00DDE4F0A3EFF0908005E0FF9014DFE4F000
:10344E00A3EFF0908006E0FF9014E1E4F0A3EFF01C
:10345E007537FF7538397539409014D7E0F53AA3B2
:10346E00E0F53BA3E0F53CA3E0F53DA3E0F53EA37C
:10347E00E0F53FA3E0F540A3E0F541A3E0F542A35C
:10348E00E0F543A3E0F544A3E0F5457B017A14791A
:10349E00E31222CF7B017A1479E3123D4AE4FF0254
:0234AE003E647A
:1035DE00C2B57F3C7E00123E19D2B57F327E0012FC
:1035EE003E19C2B57F647E00123E19908018E0F03D
:1035FE00908004E030E7177BFF7A397968123D4AF4
:10360E00C297123E13D297D296123E1580F27BFFCE
:10361E007A397979123D4A9080007421F07F647E68
:10362E0000123E1990800AE0B45006A3E064706068
:10363E00177BFF7A397988123D4AD297123E13C210
:10364E0097D296123E1580F27BFF7A397997123D0A
:10365E004AE4FF123E6490800AE4F0A3F0A374E003
:10366E00F0A374E2F0908001744CF0A37460F0A3A8
:10367E00744CF0A37440F090800774FFF090800FAC
:10368E00E4F090800E74C8F07F01123E64908007C3
:10369E00744DF0A3E4F0A3F0A3F0A3F0A3F0A3F015
:1036AE00A3F0A3F09080007422F012337EE4FF1298
:1036BE003E6490800C74C4F0A374E0F090800074AB
:1036CE0022F090800774FFF0C28C5389F043890179
:0A36DE00758C6AE4F58AD28CD2A93B
:0136E80022BF
:1037C700752C01752D08752EB0E4FF123E64B20A00
:1037D700908009300A057440F080037446F09080A9
:1037E70008E4F0786DE690800BF008E690800AF028
:1037F7009080007412F0E4FFFE786DE6FC08E6FDA9
:10380700C3EF9DEE9C502BEF64364E7009850B2C51
:10381700850C2D850D2EAB2C052EE52EAA2D7002BD
:10382700052D14F9121F34908010F00FBF00010E00
:1038370080C7908000E020E6F990800774FFF09041
:103847008004300A057440F080037446F0C3786E34
:10385700E6943C18E694005005760008763C786DAF
:10386700E6908006F008E6908005F090800774FFE8
:07387700F0908000743EF0A8
:01387E002227
:103EBF0012323DEF4E7009E51FC3940C500280F093
:033ECF00E4F51FF8
:013ED20022CD
:10323D00E4FF123E6490800774FFF0908003E0FD80
:10324D00123E58EC7003FEFF220DEDD3945F400249
:10325D007D4CED6C700302337AE4FF123E64908076
:10326D0009EDF0908008E4F090800BF090800A74E6
:10327D0012F0908000740AF0E4FF908010E0FE746C
:10328D00D72FF582E43414F583EEF00FBF12EB90D7
:10329D0014DAE0FF9014D9E0A3F09014D9EFF0E028
:1032AD00F9FEA3E07A002400FFEA3ECF24FCF52DC1
:1032BD00EF34FFF52C9014D7E030E014A3E0FFD3EA
:1032CD00945F500CEFC3944C4006E9D3940640151F
:1032DD00123E58EC14FDC3944C50027D5F90800358
:1032ED00EDF002337A9014E7E0FEA3E07A002400BB
:1032FD00FFEA3EFEEF7003EE6408600AEF640670AD
:10330D0003EE64087050908009EDF090800874040D
:10331D00F0E52C90800BF0E52D90800AF090800068
:10332D00740AF0E4FFFEC3EF952DEE952C50189026
:10333D008010E0FC74B02FF58274083EF583ECF03C
:10334D000FBF00010E80DF90800BE4F090800AF03B
:10335D009080007422F09014D8E014FDC3944C506A
:10336D00027D5F908003EDF0AE2CAF2D22E4FEFFC9
:01337D00222D
:03000B00023EF2C0
:093EF200758C6A758A00051F3207
:10197600EC4D6011E8497017ED33EC3304600DE46B
:10198600FCFFFEFD22E933E8330470F8021B8F12D8
:101996001B5A58046009E4CC2481500628500902D9
:1019A6001B99284003021B96C0E0EB4A7044B9809D
:1019B60006D0E0FB021B85EF4E701CBD8008EBFFD6
:1019C600EAFEE9FD80EBE98DF0A4FEE5F0021A5F80
:1019D600E9CDF9EAFEEBFFEF89F0A4FCE5F0CE894C
:1019E600F0A42EFFE435F0CD89F0A42DFEE435F009
:1019F6008067EF4E7005BD80D780C3EF8BF0A4AC37
:101A0600F0EE8BF0A42CFCE435F0F8EF8AF0A42C71
:101A1600E5F038FCE433CB8DF0A42CFCE5F03BF884
:101A2600EE8AF0A42CFCE5F038F8E433CF89F0A474
:101A36002CFCE5F038CF3400CE89F0A42FFFE5F07A
:101A46003EFEE433C98DF0A42EFEE5F039CD8AF0D2
:101A5600A42FFFE5F03EFEE43DFD33D0E0FB50074A
:101A66000BBB000F021B99EC2CFCEF33FFEE33FE91
:061A7600ED33FD021B71BF
:101A7C00021B99EC5D046005E859047003021B8F8E
:101A8C00121B5A580460F6EC4860F2EC7004FDFE30
:101A9C00FF22C860DB2481C85009C398600250063D
:101AAC00021B969850CAF582E9294B4A7005AB8205
:101ABC00021B8575F0007C1A7880C3EF9BEE9AEDC3
:101ACC0099400DC3EF9BFFEE9AFEED99FDE842F0B5
:101ADC00DC23ACF0D0E0FFD0E0FED0E0FDAB822008
:101AEC00E7101BEB60BAEC2CFCEF33FFEE33FEED92
:101AFC0033FD021B71E803F830E705C0F075F00008
:101B0C00EF2FFFEE33FEED33FD40B830E7C280AA75
:101B1C0075F020800E75F010800575F0087D007E44
:101B2C00007F003392D530D5031221D6EC33401010
:101B3C00EF33FFEE33FEED33FDEC33FCD5F0ED224D
:0E1B4C00E5F0247EA2D513CC92E7CDCEFF2289
:10227300E54B2437F8E6054B2278343007027837EC
:10228300E475F0011221E4021F342000EB7F2ED20B
:10229300008018EF540F2490D43440D4FF30040B43
:1022A300EF24BFB41A0050032461FFE54C6002150C
:1022B3004C054FE54F7002054E30070D7834E47539
:1022C300F0011221E4EF021FE4023DC97403D207B7
:1022D3008003E4C207F54B8B348A358936E4F54C29
:1022E300F54EF54FE54C60077F201222AE80F57561
:1022F3004DFFC201C200C202C203C205C206C20828
:1023030012227CFF700D3007057F001222BFAF4FF2
:10231300AE4E22B4255FC2D5C20412227CFF24D064
:10232300B40A00501A75F00A784C30D50508B6FF88
:102333000106C6A426F620D5047002D20380D92450
:10234300CFB41A00EF5004C2E5D2040225ACD20187
:1023530080C6D20080C0D20280BCD2D580BAD2055A
:1023630080B47F201222AE2002077401B54C0040D6
:10237300F1122273FF1222AE0222E7D208D20680A4
:1023830095122273FB122273FA122273F94A4B70CD
:102393000679A37A267BFF20022EE54C602A7E0075
:1023A3008E82758300121F4D60060EEE654D70F030
:1023B300C2D5EBC0E0EAC0E0E9C0E0EE12260CD0E3
:1023C300E0F9D0E0FAD0E0FB121F34FF60AAEBC0C3
:1023D300E0EAC0E0E9C0E01222AED0E02401F9D087
:1023E300E03400FAD0E0FBE54D0460DCD54DD98044
:1023F30087D20280A21225EF60F7E54D7001041227
:102403001BA4A94D600DE54D600914F54D122696E8
:10241300EF60F3EA30E702F404C3995077EAF42556
:102423004D0430E701E404F54D800D1225EF60C142
:10243300EA054D254D121BA4EA784AF630E701E47C
:10244300254D04D54D042005011412260CE4C0E0EB
:10245300122696784AE6601320E70714F6122296AE
:10246300802204F6D0E014C0E07F00122296E54DEE
:10247300600712228D154D800B30050312228DD07B
:10248300E00222E7D0E00480C51225EF60A0E54D0D
:1024930004121BA4784AEAF6E54D20050260010404
:0524A300240412260CC8
:1024A80074FF04C0E0122696122296E54D2005021C
:1024B800600312228DD0E0B54DE87F451222A07846
:1024C8004AE67F2B30E7047F2DF404C0E01222AEE9
:1024D800D0E075F00A84C0F0122297D0E01222975B
:1024E8000222E7791080027908C206C2088008D261
:1024F800D5790A8004790AC2D5E54D047002F54DF4
:10250800E4FAFDFEFF122273FC7B0820011312225D
:1025180073FD7B1030000A122273FE122273FF7BB8
:1025280020EC3382D592D55013C3E43000069FFFC8
:10253800E49EFEE42001039DFDE49CFCE4CBF8C28C
:1025480001EC700CCFCECDCCE824F8F870F38017EE
:10255800C3EF33FFEE33FEED33FDEC33FCEB33FB1F
:10256800994002FB0FD8E9EB300105F8D0E0C448E8
:10257800B201C0E00AEC4D4E4F78207B0070C2EAF1
:10258800B54D0040BCC0E012260ED0F0D0E02001CE
:1025980004C4C0E0C4B201C0F0122297D0F0D5F054
:1025A800EB0222E71221F423845324EB5823554CE1
:1025B80023514224EF4F24F74424F749236A432444
:1025C800FD55242E46248C4523F84726C35023590D
:1025D8002D235D2E23802B236123237E2026AC2AE6
:1025E80023194800002378E54DB4FF03754D061202
:1025F8002273FC122273FD122273FE122273FF78DB
:1026080043021BD3790AA2D5200314300509B91057
:10261800020404B9080104A2D520060250010420CE
:1026280002689202B54C005034C0E07F2030031994
:102638007F30A20272067205500F122665C202C2CE
:1026480006C205C2087F30800F300503E9C0E012DA
:1026580022AE300503D0E0F9D0E0B54CCC300517F8
:102668007F30B9100C1222AE7F583004077F788073
:1026780003B908031222AE3002057F2D0222AE7F75
:10268800202008F87F2B2006F322920280CF7F00BB
:10269800B4070050052443F8E6FF22286E756C6CD9
:1026A8002900D2011222733001F8C201784C30D5CA
:1026B8000108F60223192D504349581222732403A6
:1026C800B405004001E49026BE9312229F743A128A
:0A26D800229FD203754C040224EB8C
:101B5A00E9D2E7C933E833F892D5EDD2E7CD33ECD1
:071B6A0033FC5002B2D5224A
:101B7100EC30E7100FBF000C0EBE00080DBD0004D5
:101B81000BEB6014A2D5EB13FCED92E7FD2274FF81
:101B9100FCFDFEFF22E480F8A2D574FF13FC7D80DA
:031BA100E480EFEE
:101BA400F920E72824F950037907E4F42402FB1808
:101BB400DBFDE624FB5014E9600DE4F618E604F6B8
:0F1BC400B40A08E4F6D9F57401F60A22C2D52254
:101BD300ED33EC3392D5FA602AB4FF33EDC2E77BE1
:101BE300FF60067A1B79F8E4227A1C790120D50478
:101BF3007A1B79FC224E614E002B494E46002D493B
:101C03004E4600E47A08F608DAFC7B00740722E803
:101C1300C0E0ECC0E0EDC0E0EEC0E0EFC0E0EA758C
:101C2300F010A4CAABF075F04DA42BFBE435F0FC27
:101C3300EA2410FAEB34C5FBEC34D9FCEDC2E7FF20
:101C430075F056A4F42411C5F0F434C58FF0A42A1A
:101C5300E5F03BE43CF620E714121DFED0E0FFD094
:101C6300E0FED0E0FDD0E0FC121A7F8014F40412F1
:101C73001DFED0E0FFD0E0FED0E0FDD0E0FC121965
:101C830076D0E0F8E6FAEDD2E7CD33EC332482FBED
:101C9300E4C3CF33CFCE33CECD33CD33DBF37B07AA
:101CA30075F00A846004F6081B0AE5F0F6088FF065
:101CB300740AA4FFACF08EF0740AA42CFEACF050AE
:101CC300010C8DF0740AA42CFDE435F0F608DBDE7C
:031CD30074072271
:101CD600021B8FE86480F8E933E83360110460F092
:101CE600ED33EC337009E8FCE9FDEAFEEBFF220474
:101CF60060DED3EB9FEA9EE99DE8C2E78CF0C2F76F
:101D060095F0400CE8CCF8E9CDF9EACEFAEBCFFB3A
:101D1600121B5A85D0F05804700320D5B3E804701E
:101D2600075002B2D5021B9992D5EC0460F7E4CCB9
:101D3600C0E0C398F8603B94186008400DD0E0FB03
:101D4600021B71E4FBFAC9FC8028E830E406E4C90A
:101D5600FBE4CAFCE830E305E4C9CACBFCE8540757
:101D66006010F8C3E913F9EA13FAEB13FBEC13FC62
:101D7600D8F130F52FC3E49CFCEF9BFFEE9AFEED05
:101D860099FDD0E0FBEF4E4D4C701222DB03021B97
:101D960096EC2CFCEF33FFEE33FEED33FDED30E732
:101DA600EB021B71EF2BFFEE3AFEED39FDD0E0FBA7
:101DB60050130BBB0003021B99ED13FDEE13FEEF50
:081DC60013FFEC13FC021B717A
:101DCE003F8000004120000042C80000447A00001D
:101DDE00461C400047C35000497424004B1896809F
:101DEE004CBEBC205A0E1BCA6753C21C749DC5AE96
:101DFE00FB60065407601C2323121E2CEB54386024
:101E0E0009121E18121E27121976ECF8EDF9EEFAC9
:101E1E00EFCB22EB121E2780F1543803241C901DA9
:101E2E00CEFE93FC0EEE93FD0EEE930ECE93FF229E
:030000000239A81A
:0C39A800787FE4F6D8FD75816E0239EFDF
:101E3E00E709F608DFFA8046E709F208DFFA803E86
:101E4E0088828C83E709F0A3DFFA8032E309F60873
:101E5E00DFFA8078E309F208DFFA807088828C83DB
:101E6E00E309F0A3DFFA806489828A83E0A3F6088F
:101E7E00DFFA805889828A83E0A3F208DFFA804C69
:101E8E0080D280FA80C680D4806980F28033801040
:101E9E0080A680EA809A80A880DA80E280CA8033A9
:101EAE0089828A83ECFAE493A3C8C582C8CCC58321
:101EBE00CCF0A3C8C582C8CCC583CCDFE9DEE780F1
:101ECE000D89828A83E493A3F608DFF9ECFAA9F070
:101EDE00EDFB2289828A83ECFAE0A3C8C582C8CCC6
:101EEE00C583CCF0A3C8C582C8CCC583CCDFEADEDF
:101EFE00E880DB89828A83E493A3F208DFF980CC41
:101F0E0088F0EF60010E4E60C388F0ED2402B40439
:101F1E000050B9F582EB2402B4040050AF232345E0
:061F2E008223901E8E7359
:101F3400BB010689828A83E0225002E722BBFE02AB
:091F4400E32289828A83E49322DE
:101F4D00BB010CE58229F582E5833AF583E0225049
:101F5D0006E92582F8E622BBFE06E92582F8E22293
:0D1F6D00E58229F582E5833AF583E49322AD
:101F7A00BB0111F8E58229F582E5833AF583E0C8C9
:101F8A0028F0E8225009C58229F8C58226C622BB54
:101F9A00FE0DC58229F8E2C5822582F2E58222EA8F
:071FAA002583F583E9932272
:101FB100BB010FF8E58229F582E5833AF583E02834
:101FC100F0225009C58229F8E58226F622BBFE09D6
:101FD100C58229F8E22582F222F8EA2583F583E910
:031FE10093282220
:101FE400BB010689828A83F0225002F722BBFE01DC
:021FF400F322D6
:101FF600F8BB010DE58229F582E5833AF583E8F021
:10200600225006E92582C8F622BBFE05E92582C8CC
:02201600F222B4
:10201800EF8DF0A4A8F0CF8CF0A428CE8DF0A42EDC
:02202800FE2296
:10202A00C5F0F8A3E028F0C5F0F8E5821582700241
:06203A001583E038F022DE
:10204000A3F8E0C5F025F0F0E58215827002158353
:06205000E0C838F0E822B0
:10205600BB010A89828A83E0F5F0A3E02250068755
:10206600F009E71922BBFE07E3F5F009E319228917
:0B207600828A83E493F5F0740193224A
:10208100BB0110E58229F582E5833AF583E0F5F09D
:10209100A3E0225009E92582F886F008E622BBFE7A
:1020A1000AE92582F8E2F5F008E222E5832AF583C0
:0820B100E993F5F0A3E9932285
:1020B900BB010FF8E58229F582E5833AF583E80249
:1020C90020405011C58229F808C5F026C6F5F01838
:1020D900C58236C622BBFE15C58229F808E2C5F0BD
:1020E90025F0F218E2C5823582F2E58222E5832ADB
:0C20F900F583E993F5F0A3E993C5F0220C
:10210500BB010789828A8302202A500B09C5F02763
:10211500F7C5F01937F722BBFE0D09F8E325F0F3F3
:10212500C5F019E338F322F889828A83740193256F
:08213500F0C5F0F8E493382234
:10213D00BB010DC58229C582C5833AC58302202AFC
:10214D005011C58229F808E5F026F618F5F0E5825C
:10215D0036F622BBFE11C58229F808E225F0F5F00E
:10216D00F218E23582F222F8E58229F582E5832A1A
:0D217D00F58374019325F0F5F0E49338220A
:10218A00BB010A89828A83F0E5F0A3F0225006F7A0
:0F219A0009A7F01922BBFE06F3E5F009F319229D
:1021A900F8BB0111E58229F582E5833AF583E8F068
:1021B900E5F0A3F0225009E92582C8F608A6F02225
:0D21C900BBFE09E92582C8F2E5F008F2220C
:0E21D600C3E49FFFE49EFEE49DFDE49CFC221A
:1021E400FAE6FB0808E6F925F0F618E6CA3AF622FC
:1021F400D083D082F8E4937012740193700DA3A37A
:1022040093F8740193F5828883E47374029368608D
:06221400EFA3A3A380DF8D
:10221A00D083D082F8E4937012740193700DA3A353
:10222A0093F8740193F5828883E473740293B5F08A
:0D223A00067403936860E9A3A3A3A380D8F2
:103DC900EFB40A07740D123DD4740A309811A899FA
:103DD900B8130CC2983098FDA899C298B811F6305A
:073DE90099FDC299F5992232
:103EAA00E4FFFE121F34600C0FEF70010E09E97077
:053EBA00F20A80EF2276
:10224700EF4E6012EF60010EEDBB010B89828A83AE
:10225700F0A3DFFCDEFA2289F05007F709DFFCA9BB
:0C226700F022BBFEFCF309DFFCA9F02212
:1039B4000234B0E493A3F8E493A34003F68001F245
:1039C40008DFF48029E493A3F85407240CC8C33314
:1039D400C4540F4420C8834004F456800146F6DFE3
:1039E400E4800B0102040810204080900F7FE47EE5
:1039F400019360BCA3FF543F30E509541FFEE493D8
:103A0400A360010ECF54C025E060A840B8E493A39E
:103A1400FAE493A3F8E493A3C8C582C8CAC583CAC9
:103A2400F0A3C8C582C8CAC583CADFE9DEE780BE81
:011975000071
:00000001FF
